:100000000C9424010C9441010C9441010C94410185
:100010000C9441010C94B2030C9441010C944101E5
:100020000C9441010C9441010C9441010C947C030B
:100030000C9441010C9441010C9441010C94410138
:100040000C9441010C9441010C94A8080C944101BA
:100050000C9441010C9441010C9441010C94410118
:100060000C9441010C944101000000000000005F6D
:1000700000000007000700147F147F14242A7F2A41
:10008000122313086462364955225000050300000C
:10009000001C2241000041221C0014083E081408E4
:1000A000083E0808005030000008080808080060F2
:1000B00060000020100804023E5149453E00427F86
:1000C000400042615149462141454B311814127F8D
:1000D0001027454545393C4A494930017109050316
:1000E0003649494936064949291E0036360000007E
:1000F0005636000008142241001414141414004150
:100100002214080201510906324979413E7E11113B
:10011000117E7F494949363E414141227F4141227A
:100120001C7F494949417F090909013E4149497AF2
:100130007F0808087F00417F41002040413F017F48
:10014000081422417F404040407F020C027F7F0420
:1001500008107F3E4141413E7F090909063E415159
:10016000215E7F09192946464949493101017F012C
:10017000013F4040403F1F2040201F3F4038403F4C
:100180006314081463070870080761514945430068
:100190007F41410002040810200041417F00040219
:1001A0000102044040404040000102040020545439
:1001B00054787F48444438384444442038444448C0
:1001C0007F3854545418087E0901020C5252523E92
:1001D0007F0804047800447D40002040443D007FB7
:1001E0001028440000417F40007C041804787C08FB
:1001F00004047838444444387C1414140808141453
:10020000187C7C080404084854545420043F44409B
:10021000203C4040207C1C2040201C3C4030403C86
:1002200044281028440C5050503C4464544C440022
:100230000836410000007F00000041360800100829
:10024000081008000000000011241FBECFEFD8E006
:10025000DEBFCDBF11E0A0E0B1E0E4EAF9E102C009
:1002600005900D92A632B107D9F723E0A6E2B1E0DE
:1002700001C01D92AA3DB207E1F70E9426090C9425
:10028000D00C0C9400000F931F93CF93DF938091B9
:100290002801909129010E94650CCAE8D3E00AE088
:1002A00010E00E94600CB8010E947909899399932B
:1002B00083E0C239D807A9F7DF91CF911F910F9141
:1002C000089580912601909127010196843091052F
:1002D0002CF4909327018093260108951092270112
:1002E000109226010895E0912601F0912701EE0F6A
:1002F000FF1FEE57FC4F8081918101968A30910556
:100300001CF4918380830895118210820895E091F6
:100310002601F0912701EE0FFF1FEE57FC4F808161
:100320009181019797FF02C089E090E091838083DB
:100330000895A6E7B3E011961C921E92E2E9F3E05D
:100340001182108213961C921E92129713821282AF
:1003500015961C921E9214971582148217961C9261
:100360001E9216971782168288B1807B88B98BB14E
:10037000887F8BB908950E9443018EE190E09093AD
:100380007F0380937E0381E090E090932B01809324
:100390002A018AE090E09093810380938003E2E851
:1003A000F3E0118210821382128215821482178266
:1003B00016820E9499011092270110922601089539
:1003C00010922B0110922A010E94890461E08CE0B6
:1003D00091E00E946E050E9483050E9499012FEF13
:1003E0008BE792E9215080409040E1F700C0000087
:1003F0000C94BB0183E090E028B12F6428B92BB1A5
:1004000027602BB92FEF39E648E1215030404040BA
:10041000E1F700C0000028B1207B28B92BB1287F6C
:100420002BB92FEF39E648E1215030404040E1F749
:1004300000C00000019701F7089510922B0110925F
:100440002A010E94890461E086E191E00E946E0524
:100450000E9483050E9499010E94FA010C94BB013D
:10046000CF92DF92EF92FF920F931F93CF93DF9380
:100470000E949901A2E8B3E0C6E7D3E02AE833E09E
:100480004AE853E06D0180E090E061E070E0F60141
:10049000E190F1906F01FA0101911191AF01E01625
:1004A000F10619F479836883019622962C153D058F
:1004B00071F7C2E9D3E062E973E001E010E04D9129
:1004C0005D91EAE8F3E0E190F1904E155F0511F4DB
:1004D000198308836E177F07B1F722962A173B0707
:1004E00071F7049719F40E941D0213C080918003D4
:1004F0009091810301979093810380938003892BCE
:1005000011F40E94E0018EE190E090937F038093CC
:100510007E0328B16091780370917903660F771F8D
:1005200080917603282B262B40917A0350917B03F0
:10053000440F551F440F551F822F842B20917C039D
:1005400030917D0343E0220F331F4A95E1F7282BBA
:10055000809192039091930356E0880F991F5A95CA
:10056000E1F7822B88B99BB12091960330919703D4
:10057000220F331F80919403892B282B809198039D
:1005800090919903880F991F880F991F822B8BB91F
:10059000DF91CF911F910F91FF90EF90DF90CF905F
:1005A00008951F93CF93DF93CDB7DEB760970FB653
:1005B000F894DEBF0FBECDBF60E080E00E947E05F4
:1005C00088E0E4E0F1E0DE01199601900D928A9551
:1005D000E1F7A2E8B3E0FE013996AE014F5E5F4F4E
:1005E000CF0160E22D913D91205D208310E2618377
:1005F0003296E417F507B1F7188A61E00E946E059C
:100600006AE080E00E947E0588E0E4E0F1E0DE013F
:10061000119601900D928A95E1F719831A831B8335
:100620001C83E0912601F0912701EE0FFF1F81E06E
:1006300090E08C0F9D1FE80FF91F8AE280831886D7
:1006400061E0CE0101960E946E0560960FB6F894A7
:10065000DEBF0FBECDBFDF91CF911F91089564E142
:1006600080E00E947E0580917E0390917F038A3016
:1006700091053CF490E390937003805D8093710347
:1006800005C04AE060E773E00E94790C10927203A3
:1006900061E080E793E00C946E056EE180E00E94DB
:1006A0007E0580918003909181038A3091053CF40E
:1006B00090E390937303805D8093740305C04AE0D8
:1006C00063E773E00E94790C1092750361E083E7A1
:1006D00093E00C946E0580912A0190912B01892B57
:1006E00051F00E9489040E94D1020E942F030E94AF
:1006F0004D030C94830508951F920F920FB60F922D
:1007000011242F933F934F935F936F937F938F9316
:100710009F93AF93BF93EF93FF9380912A019091A2
:100720002B01892B71F00E946B0380917E039091C5
:100730007F03019790937F0380937E0397FD0E9430
:10074000E001FF91EF91BF91AF919F918F917F91C8
:100750006F915F914F913F912F910F900FBE0F902E
:100760001F9018951F920F920FB60F9211242F937E
:100770003F934F935F936F937F938F939F93AF9329
:10078000BF93EF93FF934B9B03C04C990EC010C0D7
:100790000E9473010E946B034B99F7CF8FE99FE092
:1007A0000197F1F700C00000F7CF4D990EC010C0BF
:1007B0000E9487010E946B034C99F7CF8FE99FE05D
:1007C0000197F1F700C00000F7CF4E990EC010C09E
:1007D0000E9461010E946B034D99F7CF8FE99FE062
:1007E0000197F1F700C00000F7CF4F9B25C00DC067
:1007F0000E9430020E946B034E99F7CF8FE99FE071
:100800000197F1F700C00000F7CF8FE99FE0019753
:10081000F1F700C00000FF91EF91BF91AF919F9160
:100820008F917F916F915F914F913F912F910F9099
:100830000FBE0F901F9018950E94BB014F99E5CFF6
:100840008FE99FE00197F1F700C00000F7CF2998EA
:10085000662311F02B9A01C02B9827E030E090E03E
:10086000AC01022E02C0559547950A94E2F740FF6D
:1008700002C02C9A01C02C982D9A2D982150310934
:1008800078F7299A089560E00C942704CF93DF93BA
:10089000219A229A239A249A259A2A9A299A8FE3AE
:1008A0009CE90197F1F700C000002A989FEF2AE623
:1008B00083E0915020408040E1F700C000002A9A78
:1008C000299881E20E94430483E10E94430486E068
:1008D0000E94430482EC0E94430480E20E9443048D
:1008E00089E00E94430480E80E94430480E40E945F
:1008F0004304C8EFD1E061E080E00E942704219723
:10090000D1F788E00E9443048CE0DF91CF910C94F2
:10091000430480E80E94430480E40E944304109250
:1009200024031092250388EF91E0ECE2F1E0DF016F
:100930009C011D9221503040E1F70895811102C0C1
:1009400084E201C080E20C944304962F969596951C
:100950009695E82FF0E084E5989FE00DF11D1124B5
:10096000E45DFE4F677081E090E001C0880F6A95FA
:10097000EAF7442319F09081892B03C08095908178
:100980008923808308958F929F92AF92BF92DF92C6
:10099000EF92FF920F931F93CF93DF9300D000D07D
:1009A0001F92CDB7DEB7F62E282F082E000C330B82
:1009B00080326CF02052310985E0829FB001839F24
:1009C000700D112468597F4F45E050E00EC0220F92
:1009D000331FF901E656FC4F008111810115110505
:1009E00059F445E050E068E670E0CE0101960E94BF
:1009F000700C8E010F5F1F4F85E0F89E500111248F
:100A000097E0F99E40011124D12C8D2D90E08A159C
:100A10009B0544F5E12C8E2D90E08815990504F591
:100A20008D2D6F2D0E946D09F801E80FF11D2081B9
:100A300030E08E2D0E946D0902C0359527958A956C
:100A4000E2F760912503809124036E0D20FF02C020
:100A500041E001C040E08D0D0E94A504E394DBCF8E
:100A6000D394D3CF8091240391E0980F8F2D880FDA
:100A7000880F8F0D890F843518F4809324030BC0E1
:100A800010922403809125038F5F97E0F99E800DDB
:100A900011248093250380912503803320F0109248
:100AA0002403109225030F900F900F900F900F903A
:100AB000DF91CF911F910F91FF90EF90DF90BF904A
:100AC000AF909F908F90089580323CF4E82FEE0F06
:100AD000FF0BE656FC4F7183608308951F93CF93FD
:100AE000DF93162FEC018991882321F0612F0E945A
:100AF000C304F9CFDF91CF911F9108958093240310
:100B0000609325030895CF93DF9380E80E94430408
:100B100080E40E944304CCE2D1E061E089910E942C
:100B2000270483E0C432D807C1F7DF91CF9108953D
:100B30004F925F926F927F928F929F92AF92BF92ED
:100B4000CF92DF92EF92FF92CF93DF93CDB7DEB7D4
:100B50002E970FB6F894DEBF0FBECDBF8D87698785
:100B6000F22E642F70E0681B7109072E000C880BB1
:100B7000990B0E94F20A4B015C016F2D70E02985F0
:100B8000621B7109072E000C880B990B0E94F20A58
:100B90006B017C0124013501E89477F8DC01CB017D
:100BA000BF7789839A83AB83BC839C01AD01C3016A
:100BB000B2010E947E0B87FF04C049805A806B807F
:100BC0007C80A3019201C501B4010E944F0A698390
:100BD0007A838B839C83A3019201C701B6010E9493
:100BE0004F0A6D837E838F839887AD856A2F70E06F
:100BF00080E090E00E94F00A6B017C01B9856B2FC8
:100C000070E080E090E00E94F00A4B015C0121E07E
:100C100030E03E872D87AD85BE85BD01BB0F880BBB
:100C2000990B0E94F20A9B01AC01C301B2010E9420
:100C30007E0B87FD2CC0C501B4010E94C10A6987E3
:100C40007A878B879C87C701B6010E94C10ADC01A5
:100C5000CB0141E069850E94A50429813A814B813D
:100C60005C81C701B6010E94E3096B017C012D8103
:100C70003E814F815885C501B4010E94E3094B01B3
:100C80005C018D859E8501969E878D87C4CF2E96AB
:100C90000FB6F894DEBF0FBECDBFDF91CF91FF90AE
:100CA000EF90DF90CF90BF90AF909F908F907F900C
:100CB0006F905F904F9008950F931F93CF93DF93A2
:100CC000C82F162F042FD22F262F0E9498052D2FC4
:100CD000402F612F802F0E9498052D2F4C2F6D2FB4
:100CE000802F0E949805212F4C2F6D2F8C2FDF9184
:100CF000CF911F910F910C9498057F928F929F92A4
:100D0000AF92BF92CF92DF92EF92FF920F931F9319
:100D1000CF93DF93D82EC62EC42FD0E0E12CF12C38
:100D200000E010E041E0AC2CA00E6A2DBC2EBD0C02
:100D30008B2D0E94A50441E08C2E8C0C682D9D2CDF
:100D4000900E892D0E94A50441E0682D7D2C701A1B
:100D5000872D0E94A50441E06A2D8D2C8C1A882DC8
:100D60000E94A50441E0AC2CA01A6A2D882D0E9497
:100D7000A50441E08C2C8C1A682D872D0E94A504B7
:100D800041E0682D892D0E94A50441E06A2D8B2D3C
:100D90000E94A5041E141F045CF00F5F1F4FC801C2
:100DA000880F991F0196E80EF91E1E141F043CF4CB
:100DB0002197CE01880F991F0196E81AF90AC017EA
:100DC000D1070CF0AFCFDF91CF911F910F91FF9022
:100DD000EF90DF90CF90BF90AF909F908F907F90DB
:100DE00008954F925F926F927F92BF92CF92DF925F
:100DF000EF92FF920F931F93CF93DF93CDB7DEB7A0
:100E00006E970FB6F894DEBF0FBECDBF97FD1DC025
:100E10008E010F5F1F4F78014AE0442E512C612C48
:100E2000712C0F5F1F4F680121E0C21AD108A30186
:100E300092010E94AF09605DD6016C93CA01B901AD
:100E4000232B242B252B69F721C02DE229838E012A
:100E50000E5F1F4F78012AE0422E512C612C712C1D
:100E600030E3B32E0F5F1F4F6801B1E0CB1AD108FA
:100E7000A30192010E94AF098B2D861BF60180838E
:100E8000CA01B901232B242B252B61F7F701D801C7
:100E90001C92015011090E171F0730F08081D801F4
:100EA0009C9191938C93F5CF8E010F5F1F4FF801AA
:100EB00081918F01882319F00E940A09F8CF6E965C
:100EC0000FB6F894DEBF0FBECDBFDF91CF911F915B
:100ED0000F91FF90EF90DF90CF90BF907F906F9039
:100EE0005F904F9008958F929F92AF92BF92CF9252
:100EF000DF92EF92FF920F931F93CF93DF93CDB7C3
:100F0000DEB76E970FB6F894DEBF0FBECDBF4B01B4
:100F10005C01DE0111968D01FD01319675016401C0
:100F20002FE0C222DD24EE24FF2420E32C0D2C939D
:100F300024E0B694A794979487942A95D1F78114C6
:100F40009104A104B10411F0DF01E6CF6031710515
:100F50008105910520F4319680E311968C931082DF
:100F6000D8013197EA17FB0760F09C919A330CF097
:100F7000995D80818A330CF0895D8C939083119602
:100F8000F0CFF80181918F01882319F00E940A099E
:100F9000F8CF6E960FB6F894DEBF0FBECDBFDF91CF
:100FA000CF911F910F91FF90EF90DF90CF90BF9066
:100FB000AF909F908F900895CF93DF93EC0189912C
:100FC000882319F00E940A09FACFDF91CF91089582
:100FD0008F929F92AF92BF92CF92DF92EF92FF9249
:100FE0006B017C010E94C10A4B015C010E94F10669
:100FF00081E291E00E94DC07C501B4010E94F00A81
:101000009B01AC01C701B6010E94E20920E030E07B
:101010004AE754E40E94830B0E94C10A6B017C01E1
:1010200084E6C816D104E104F10470F483E291E08F
:101030000E94DC078AE0C816D104E104F10420F420
:1010400083E291E00E94DC07C701B601FF90EF90B8
:10105000DF90CF90BF90AF909F908F900C94F1064F
:10106000CF93C42FF8949B01AC0184E0220F331F6F
:10107000441F551F8A95D1F760E074E284EF90E039
:101080000E948D09BA01A9014150510961097109F4
:10109000BB27A72F962F852F8093C5004093C400B0
:1010A00086E08093C200C11102C088E901C088E1D6
:1010B0008093C1007894CF910895109267031092A5
:1010C0006603109269031092680310926B031092EA
:1010D0006A03089580916A0390916B03089590913B
:1010E000C00095FFFCCF8093C60008958091C0009A
:1010F00087FFFCCF8091C600089520916603309150
:101100006703809168039091690328173907A9F351
:10111000F894E0916603F0916703EA5DFC4F8081EB
:1011200020916603309167032F5F3F4F2F73332762
:10113000309367032093660320916A0330916B0319
:101140002150310930936B0320936A0378940895FA
:101150001F920F920FB60F9211242F933F938F93EC
:101160009F93AF93BF93EF93FF938091C00087FF4E
:1011700038C0809168039091690301968F73992715
:10118000209166033091670382179307B9F0E091CD
:101190006803F09169032091C600EA5DFC4F20834B
:1011A000909369038093680380916A0390916B0325
:1011B000019690936B0380936A03D7CF80916C0361
:1011C00090916D03A0916E03B0916F030196A11DE4
:1011D000B11D80936C0390936D03A0936E03B09345
:1011E0006F03FF91EF91BF91AF919F918F913F91CD
:1011F0002F910F900FBE0F901F9018951092C50061
:1012000080E18093C40086E08093C20088E18093EF
:10121000C10008959091C00095FFFCCF8093C60057
:1012200008958091C00087FFFCCF8091C60008958B
:10123000CF93DF93EC018991882319F00E940A096A
:10124000FACF8AE0DF91CF910C940A0940E060E088
:1012500071EE80E090E00E9430088AB187708AB910
:101260008BB1886F8BB9809168008660809368002D
:1012700080916D00886F80936D008AB187608AB914
:1012800087B18F6487B9809181008D6080938100E0
:101290008DE38093890088E08093880080916F00BF
:1012A000826080936F0078940E94460481E00E94DF
:1012B0009E040E948904609128017091290180E0B8
:1012C00090E00E94F10680912801909129010196F9
:1012D0009093290180932801EECF991B79E004C0F7
:1012E000991F961708F0961B881F7A95C9F7809565
:1012F000089597FB072E16F4009407D077FD09D0C8
:101300000E94CE0907FC05D03EF4909581959F4F31
:101310000895709561957F4F0895A1E21A2EAA1B3A
:10132000BB1BFD010DC0AA1FBB1FEE1FFF1FA21795
:10133000B307E407F50720F0A21BB30BE40BF50B92
:10134000661F771F881F991F1A9469F7609570951B
:10135000809590959B01AC01BD01CF010895052EAC
:1013600097FB1EF400940E94C60957FD07D00E9407
:101370008D0907FC03D04EF40C94C6095095409596
:10138000309521953F4F4F4F5F4F08959095809531
:10139000709561957F4F8F4F9F4F0895AA1BBB1B80
:1013A00051E107C0AA1FBB1FA617B70710F0A61B65
:1013B000B70B881F991F5A95A9F780959095BC0186
:1013C000CD0108955058BB27AA270E94FA090C9412
:1013D000440B0E94360B38F00E943D0B20F039F48C
:1013E0009F3F19F426F40C94330B0EF4E095E7FBC1
:1013F0000C942D0BE92F0E94550B58F3BA17620776
:1014000073078407950720F079F4A6F50C94770B01
:101410000EF4E0950B2EBA2FA02D0B01B90190010F
:101420000C01CA01A0011124FF27591B99F0593F53
:1014300050F4503E68F11A16F040A22F232F342F9B
:101440004427585FF3CF469537952795A795F040E9
:101450005395C9F77EF41F16BA0B620B730B840BFE
:10146000BAF09150A1F0FF0FBB1F661F771F881FB6
:10147000C2F70EC0BA0F621F731F841F48F487950E
:1014800077956795B795F7959E3F08F0B0CF939500
:10149000880F08F09927EE0F9795879508950E9479
:1014A000630A0C94440B0E943D0B58F00E94360BCB
:1014B00040F029F45F3F29F00C942D0B51110C944E
:1014C000780B0C94330B0E94550B68F39923B1F3FE
:1014D000552391F3951B550BBB27AA27621773075A
:1014E000840738F09F5F5F4F220F331F441FAA1FEE
:1014F000A9F335D00E2E3AF0E0E832D091505040AA
:10150000E695001CCAF72BD0FE2F29D0660F771F57
:10151000881FBB1F261737074807AB07B0E809F03D
:10152000BB0B802DBF01FF2793585F4F3AF09E3FC2
:10153000510578F00C942D0B0C94780B5F3FE4F37D
:10154000983ED4F3869577956795B795F7959F5F05
:10155000C9F7880F911D9695879597F90895E1E051
:10156000660F771F881FBB1F621773078407BA07B0
:1015700020F0621B730B840BBA0BEE1F88F7E0950B
:1015800008950E945D0B88F09F5798F0B92F992716
:10159000B751B0F0E1F0660F771F881F991F1AF05E
:1015A000BA95C9F714C0B13091F00E94770BB1E041
:1015B00008950C94770B672F782F8827B85F39F040
:1015C000B93FCCF3869577956795B395D9F73EF4F7
:1015D00090958095709561957F4F8F4F9F4F08959F
:1015E000E89409C097FB3EF49095809570956195BD
:1015F0007F4F8F4F9F4F9923A9F0F92F96E9BB2773
:101600009395F695879577956795B795F111F8CFEE
:10161000FAF4BB0F11F460FF1BC06F5F7F4F8F4F59
:101620009F4F16C0882311F096E911C0772321F04F
:101630009EE8872F762F05C0662371F096E8862FE7
:1016400070E060E02AF09A95660F771F881FDAF73E
:10165000880F9695879597F9089597F99F6780E881
:1016600070E060E008959FEF80EC089500240A94F4
:101670001616170618060906089500240A9412166D
:101680001306140605060895092E0394000C11F4A0
:10169000882352F0BB0F40F4BF2B11F460FF04C04D
:1016A0006F5F7F4F8F4F9F4F089557FD9058440FA6
:1016B000551F59F05F3F71F04795880F97FB991FB1
:1016C00061F09F3F79F0879508951216130614066E
:1016D000551FF2CF4695F1DF08C0161617061806FB
:1016E000991FF1CF86957105610508940895E894D6
:1016F000BB2766277727CB0197F908950E94F00B47
:1017000008F48FEF08950E94960B0C94440B0E94EE
:10171000360B38F00E943D0B20F0952311F00C940D
:101720002D0B0C94330B11240C94780B0E94550B49
:1017300070F3959FC1F3950F50E0551F629FF00124
:10174000729FBB27F00DB11D639FAA27F00DB11D3D
:10175000AA1F649F6627B00DA11D661F829F2227C6
:10176000B00DA11D621F739FB00DA11D621F839F4D
:10177000A00D611D221F749F3327A00D611D231F23
:10178000849F600D211D822F762F6A2F11249F5771
:1017900050409AF0F1F088234AF0EE0FFF1FBB1F74
:1017A000661F771F881F91505040A9F79E3F510533
:1017B00080F00C942D0B0C94780B5F3FE4F3983E73
:1017C000D4F3869577956795B795F795E7959F5FDD
:1017D000C1F7FE2B880F911D9695879597F908956F
:1017E000990F0008550FAA0BE0E8FEEF1616170632
:1017F000E807F907C0F012161306E407F50798F09A
:10180000621B730B840B950B39F40A2661F0232BB2
:10181000242B252B21F408950A2609F4A140A6952E
:101820008FEF811D811D08958F929F92AF92BF927D
:10183000CF92DF92EF92FF92CF93DF93EC0168811A
:1018400079818A819B81611571058105910521F45A
:1018500064E279ED8BE597E02DE133EF41E050E074
:101860000E94AF0949015A019B01AC01A7EAB1E40A
:101870000E94AE0C6B017C01ACEEB4EFA5019401AB
:101880000E94BC0CDC01CB018C0D9D1DAE1DBF1D4B
:10189000B7FF03C00197A109B04888839983AA8341
:1018A000BB839F77DF91CF91FF90EF90DF90CF9038
:1018B000BF90AF909F908F9008950E94140C089550
:1018C00080E091E00E94140C0895A0E0B0E08093C5
:1018D000000190930101A0930201B09303010895C8
:1018E000FB01DC0102C005900D9241505040D8F739
:1018F0000895BB274A3031F4992322F4BDE2909534
:1019000081959F4F0C94850CBB27FB015527AA2777
:10191000880F991FAA1FA41710F0A41B839550517C
:10192000B9F7A05DAA3308F0A95DA193009779F7F4
:10193000B111B1931192CB010C949E0CDC01FC010E
:10194000672F71917723E1F7329704C07C916D93F3
:1019500070836291AE17BF07C8F308950E94C10C4F
:10196000A59F900DB49F900DA49F800D911D1124F3
:101970000895B7FF0C94AE0C0E94AE0C821B930B23
:101980000895A29FB001B39FC001A39F700D811D58
:101990001124911DB29F700D811D1124911D089578
:0419A000F894FFCFE9
:1019A40001000000202020202020202050657264A7
:1019B4006575203A280041636572746F75203A2971
:0619C400002E00300000BF
:040000030000037680
:00000001FF
