:100000000C9424010C9441010C9441010C94410185
:100010000C9441010C9435030C9441010C94410162
:100020000C9441010C9441010C9441010C94FF0289
:100030000C9441010C9441010C9441010C94410138
:100040000C9441010C9441010C9441010C94410128
:100050000C9441010C9441010C9441010C94410118
:100060000C9441010C944101000000000000005F6D
:1000700000000007000700147F147F14242A7F2A41
:10008000122313086462364955225000050300000C
:10009000001C2241000041221C0014083E081408E4
:1000A000083E0808005030000008080808080060F2
:1000B00060000020100804023E5149453E00427F86
:1000C000400042615149462141454B311814127F8D
:1000D0001027454545393C4A494930017109050316
:1000E0003649494936064949291E0036360000007E
:1000F0005636000008142241001414141414004150
:100100002214080201510906324979413E7E11113B
:10011000117E7F494949363E414141227F4141227A
:100120001C7F494949417F090909013E4149497AF2
:100130007F0808087F00417F41002040413F017F48
:10014000081422417F404040407F020C027F7F0420
:1001500008107F3E4141413E7F090909063E415159
:10016000215E7F09192946464949493101017F012C
:10017000013F4040403F1F2040201F3F4038403F4C
:100180006314081463070870080761514945430068
:100190007F41410002040810200041417F00040219
:1001A0000102044040404040000102040020545439
:1001B00054787F48444438384444442038444448C0
:1001C0007F3854545418087E0901020C5252523E92
:1001D0007F0804047800447D40002040443D007FB7
:1001E0001028440000417F40007C041804787C08FB
:1001F00004047838444444387C1414140808141453
:10020000187C7C080404084854545420043F44409B
:10021000203C4040207C1C2040201C3C4030403C86
:1002200044281028440C5050503C4464544C440022
:100230000836410000007F00000041360800100829
:10024000081008000000000011241FBECFEFD8E006
:10025000DEBFCDBF11E0A0E0B1E0ECEBF3E102C006
:1002600005900D92A232B107D9F723E0A2E2B1E0E6
:1002700001C01D92A438B207E1F70E9496060C94C3
:10028000DC090C9400008EE190E09093490180938A
:10029000480181E090E090934401809343018AE01B
:1002A00090E0909342018093410188E0E4E3F1E023
:1002B000DF01982F1D929A95E9F7ECE2F1E0DF015A
:1002C000982F1D929A95E9F7E4E2F1E0DF011D9283
:1002D0008A95E9F7109223011092220108950F9355
:1002E0001F93CF93DF9380913C0190913D010E9439
:1002F0003009C0E0D1E00AE010E00E942B09B8010B
:100300000E94D1068993999381E0C830D807A9F754
:10031000DF91CF911F910F91089510924401109297
:1003200043010E94080461E08CE091E00E94E20435
:100330000C94F70410924401109243010E940804A7
:1003400061E087E191E00E94E2040C94F70480915F
:100350002201909123010196843091052CF4909311
:10036000230180932201089510922301109222010B
:100370000895E0912201F0912301EE0FFF1FEC5C44
:10038000FE4F8081918101968A3091051CF4918302
:1003900080830895118210820895E0912201F091E6
:1003A0002301EE0FFF1FEC5CFE4F808191810197CE
:1003B00097FD03C091838083089589E090E0FACF90
:1003C0000F931F93CF93DF9348B180912E019091AB
:1003D0002F01880F991F2091300130913101220F98
:1003E000331F220F331F822B90912C01892B2091D8
:1003F00032013091330163E0220F331F6A95E1F738
:10040000822B209124013091250176E0220F331FA9
:100410007A95E1F7822B842B88B94BB18091280122
:1004200090912901880F991F20912A0130912B0169
:10043000220F331F220F331F822B90912601892B0D
:10044000842B8BB9E4E3F1E040E051E0CCE2D1E071
:1004500004E211E090E080E061917191DA012D9168
:100460003D91AD0162177307A9F4019621E030E0D8
:1004700029933993D8012D933D938D01B1E0EC334D
:10048000FB0751F7049749F4DF91CF911F910F912A
:100490000C948D0130E020E0EBCF809141019091F0
:1004A000420101979093420180934101892B11F4FD
:1004B0000E949A018EE190E0909349018093480157
:1004C000DF91CF911F910F9108951F93CF93DF93E9
:1004D000CDB7DEB760970FB6F894DEBF0FBECDBFC5
:1004E00060E080E00E94F204E4E3F1E08081805D5E
:1004F000898710E21A878281805D8B871C878481BF
:10050000805D8D871E878681805D8F87188A61E078
:10051000CE0109960E94E2046AE080E00E94F204A3
:1005200019831A831B831C83E0912201F09123011C
:10053000EE0FFF1F81E090E08C0F9D1FE80FF91F69
:100540008AE28083188661E0CE0101960E94E2046F
:1005500060960FB6F894DEBF0FBECDBFDF91CF918E
:100560001F91089564E180E00E94F20480914801A7
:10057000909149018A3091056CF490E39093450184
:10058000805D809346011092470161E085E491E02F
:100590000C94E2044AE065E471E00E944409F3CF60
:1005A0006EE180E00E94F20480914101909142014D
:1005B0008A3091056CF490E390933E01805D8093C6
:1005C0003F011092400161E08EE391E00C94E2045F
:1005D0004AE06EE371E00E944409F3CF8091430149
:1005E00090914401892B51F00E9408040E946502F9
:1005F0000E94B2020E94D0020C94F70408951F9248
:100600000F920FB60F9211242F933F934F935F9346
:100610006F937F938F939F93AF93BF93EF93FF93CA
:100620008091430190914401892B71F00E94EE0268
:1006300080914801909149010197909349018093DD
:10064000480197FD0E949A01FF91EF91BF91AF91F0
:100650009F918F917F916F915F914F913F912F91DA
:100660000F900FBE0F901F9018951F920F920FB60C
:100670000F9211242F933F934F935F936F937F9328
:100680008F939F93AF93BF93EF93FF934B9B35C093
:100690004C9906C00E94CD010E94EE024C9B3AC0CC
:1006A0004D9906C00E94A7010E94EE024D9B39C0E1
:1006B0004E9906C00E94E0010E94EE024E9B38C097
:1006C0004F9904C00E9443014F9B39C08FE99FE0BE
:1006D0000197F1F700C00000FF91EF91BF91AF913A
:1006E0009F918F917F916F915F914F913F912F914A
:1006F0000F900FBE0F901F9018950E94B9010E9495
:10070000EE024B99C5CF8FE99FE00197F1F700C04A
:100710000000F7CF8FE99FE00197F1F700C00000DC
:10072000BDCF8FE99FE00197F1F700C00000BECF79
:100730008FE99FE00197F1F700C00000BFCF8FE97C
:100740009FE00197F1F700C00000BECF2998662313
:10075000A9F02B9A27E030E090E0AC01022E02C015
:10076000559547950A94E2F740FF0AC02C9A2D9AB6
:100770002D982150310988F7299A08952B98EACFAE
:100780002C98F5CF60E00C94A603CF93DF93219AC9
:10079000229A239A249A259A2A9A299A8FE39CE9E5
:1007A0000197F1F700C000002A989FEF2AE683E046
:1007B000915020408040E1F700C000002A9A29981B
:1007C00081E20E94C20383E10E94C20386E00E948C
:1007D000C20382EC0E94C20380E20E94C20389E04D
:1007E0000E94C20380E80E94C20380E40E94C20308
:1007F000C8EFD1E061E080E00E94A6032197D1F725
:1008000088E00E94C2038CE0DF91CF910C94C20378
:1008100080E80E94C20380E40E94C2031092820317
:1008200010928303EAE8F1E088EF91E0DF019C0198
:100830001D9221503040E1F70895811103C084E2F8
:100840000C94C20380E2FCCF962F969596959695D0
:10085000E82FF0E084E5989FE00DF11D1124E657A4
:10086000FE4F2081677081E090E001C0880F6A959B
:10087000EAF7442319F0282B208308958095282334
:10088000FBCF8F929F92AF92BF92DF92EF92FF9237
:100890000F931F93CF93DF9300D000D00F92CDB76B
:1008A000DEB7E82FF62E80320CF44DC0E05285E022
:1008B000E802B001112468597F4F45E050E0CE01B5
:1008C00001960E943B098E010F5F1F4F95E0F99E34
:1008D0005001112487E0F89E40011124E12CEA1414
:1008E0001B040CF463C0809182038F5F9F2D990FCE
:1008F000990F9F0D890F80938203843558F0809162
:100900008303109282038F5F97E0F99E800D11247C
:100910008093830380918303803320F010928203BD
:10092000109283030F900F900F900F900F90DF9114
:10093000CF911F910F91FF90EF90DF90BF90AF90FC
:100940009F908F900895EE0FFF0BE65BFE4F0081A6
:1009500011810115110509F0B9CF45E050E068E6B5
:1009600070E0ADCFED0D5E0D8E2D6F2D0E94C50692
:10097000D801A80FB11D2C9130E08D2D0E94C50625
:1009800002C0359527958A95E2F741E020FF40E0C7
:100990006E2F852F0E942404D394E09183035091FD
:1009A0008203D8141904F4F2E39499CFD12CF5CF33
:1009B000E82F803234F4EE0FFF0BE65BFE4F7183BD
:1009C000608308951F93CF93DF93162FEC018991D5
:1009D000811104C0DF91CF911F910895612F0E9472
:1009E0004104F5CF80938203609383030895CF93EE
:1009F000DF9380E80E94C20380E40E94C203CAE839
:100A0000D1E061E089910E94A60383E0C238D80753
:100A1000C1F7DF91CF9108954F925F926F927F92CD
:100A20008F929F92AF92BF92CF92DF92EF92FF92FE
:100A3000CF93DF93CDB7DEB762970FB6F894DEBFE2
:100A40000FBECDBF8D876987F22E481B550BCA019B
:100A5000550FAA0BBB0B89839A83AB83BC83BC0164
:100A6000CD010E940E0869837A838B839C83AF2D0E
:100A70004985A41BBB0BCD01BB0FAA0BBB0B8D8300
:100A80009E83AF83B887BC01CD010E940E086D83A1
:100A90007E838F839887C980DA80EB80FC80E8941E
:100AA000F7F84B015C01E894B7F8A5019401C70180
:100AB000B6010E94BE0887FF02C075016401A7014C
:100AC000960169817A818B819C810E946B07698381
:100AD0007A838B839C834B015C01A70196016D8116
:100AE0007E818F8198850E946B072B013C019D853B
:100AF000892F90E0B0E0A0E089839A83AB83BC8328
:100B0000BC01CD010E940C0869837A838B839C838E
:100B10009985892F90E0B0E0A0E08D839E83AF831C
:100B2000B887BC01CD010E940C086D837E838F8342
:100B30009887A1E0B0E0BA8BA98B89899A89092EA0
:100B4000000CAA0BBB0B89879A87AB87BC87BC01BB
:100B5000CD010E940E0869877A878B879C87A70141
:100B600096010E9466071816ACF462960FB6F894C8
:100B7000DEBF0FBECDBFDF91CF91FF90EF90DF9032
:100B8000CF90BF90AF909F908F907F906F905F902D
:100B90004F9008956D817E818F8198850E94DD0739
:100BA00069877A878B879C8769817A818B819C8111
:100BB0000E94DD076D877E878F87988B41E069856E
:100BC0008D850E942404A501940169817A818B811D
:100BD0009C810E94FA0669837A838B839C83A3019C
:100BE00092016D817E818F8198850E94FA066D83C6
:100BF0007E838F83988789899A8901969A8B898BBE
:100C00009CCF0F931F93CF93DF93C82F162F042FE2
:100C1000D22F262F0E940C052D2F402F612F802FC1
:100C20000E940C052D2F4C2F6D2F802F0E940C053C
:100C3000212F4C2F6D2F8C2FDF91CF911F910F9172
:100C40000C940C057F928F929F92AF92BF92CF929D
:100C5000DF92EF92FF920F931F93CF93DF93D82EE3
:100C6000C62EC42FD0E0F12CE12C10E000E041E0D2
:100C7000AC2CA00E6A2DBC2EBD0C8B2D0E94240422
:100C800041E08C2E8C0C682D9D2C900E892D0E949D
:100C9000240441E0682D7D2C701A872D0E942404C5
:100CA00041E06A2D8D2C8C1A882D0E94240441E08D
:100CB000AC2CA01A6A2D882D0E94240441E08C2CB3
:100CC0008C1A682D872D0E94240441E0682D892DFF
:100CD0000E94240441E06A2D8B2D0E9424041E14DE
:100CE0001F045CF00F5F1F4FC801880F991F01960A
:100CF000E80EF91E1E141F043CF42197CE01880F44
:100D0000991F0196E81AF90AC017D1070CF0AFCF66
:100D1000DF91CF911F910F91FF90EF90DF90CF90D7
:100D2000BF90AF909F908F907F9008958AB1877009
:100D30008AB98BB1886F8BB9809168008660809387
:100D4000680080916D00886F80936D008AB1876024
:100D50008AB987B18F6487B9809181008D60809353
:100D600081008DE38093890088E0809388008091E2
:100D70006F00826080936F0078940E94C50381E0C9
:100D80000E941D040E940804FFCF991B79E004C053
:100D9000991F961708F0961B881F7A95C9F78095BA
:100DA000089597FB072E16F4009407D077FD09D01D
:100DB0000E94E50607FC05D03EF4909581959F4F73
:100DC0000895709561957F4F0895AA1BBB1B51E153
:100DD00007C0AA1FBB1FA617B70710F0A61BB70BAB
:100DE000881F991F5A95A9F780959095BC01CD0150
:100DF00008955058BB27AA270E9411070C94840815
:100E00000E94760838F00E947D0820F039F49F3F58
:100E100019F426F40C9473080EF4E095E7FB0C9497
:100E20006D08E92F0E94950858F3BA1762077307F7
:100E30008407950720F079F4A6F50C94B7080EF412
:100E4000E0950B2EBA2FA02D0B01B90190010C01DA
:100E5000CA01A0011124FF27591B99F0593F50F4F2
:100E6000503E68F11A16F040A22F232F342F44274A
:100E7000585FF3CF469537952795A795F040539542
:100E8000C9F77EF41F16BA0B620B730B840BBAF012
:100E90009150A1F0FF0FBB1F661F771F881FC2F77D
:100EA0000EC0BA0F621F731F841F48F48795779591
:100EB0006795B795F7959E3F08F0B0CF9395880F4B
:100EC00008F09927EE0F9795879508950E94490895
:100ED00008F481E008950E947F070C9484080E9422
:100EE0007D0858F00E94760840F029F45F3F29F011
:100EF0000C946D0851110C94B8080C9473080E945E
:100F0000950868F39923B1F3552391F3951B550B7D
:100F1000BB27AA2762177307840738F09F5F5F4FCC
:100F2000220F331F441FAA1FA9F335D00E2E3AF00B
:100F3000E0E832D091505040E695001CCAF72BD023
:100F4000FE2F29D0660F771F881FBB1F2617370774
:100F50004807AB07B0E809F0BB0B802DBF01FF27A6
:100F600093585F4F3AF09E3F510578F00C946D080E
:100F70000C94B8085F3FE4F3983ED4F386957795D8
:100F80006795B795F7959F5FC9F7880F911D96955F
:100F9000879597F90895E1E0660F771F881FBB1FBB
:100FA000621773078407BA0720F0621B730B840B68
:100FB000BA0BEE1F88F7E09508950E949D0888F00F
:100FC0009F5798F0B92F9927B751B0F0E1F0660F0D
:100FD000771F881F991F1AF0BA95C9F714C0B1304E
:100FE00091F00E94B708B1E008950C94B708672FFC
:100FF000782F8827B85F39F0B93FCCF3869577957D
:101000006795B395D9F73EF4909580957095619565
:101010007F4F8F4F9F4F0895E89409C097FB3EF490
:1010200090958095709561957F4F8F4F9F4F992335
:10103000A9F0F92F96E9BB279395F69587957795B3
:101040006795B795F111F8CFFAF4BB0F11F460FF73
:101050001BC06F5F7F4F8F4F9F4F16C0882311F0CB
:1010600096E911C0772321F09EE8872F762F05C0DF
:10107000662371F096E8862F70E060E02AF09A957A
:10108000660F771F881FDAF7880F9695879597F96F
:101090000895990F0008550FAA0BE0E8FEEF161609
:1010A0001706E807F907C0F012161306E407F5075C
:1010B00098F0621B730B840B950B39F40A2661F0D0
:1010C000232B242B252B21F408950A2609F4A14073
:1010D000A6958FEF811D811D089597F99F6780E880
:1010E00070E060E008959FEF80EC089500240A947A
:1010F0001616170618060906089500240A941216F3
:101100001306140605060895092E0394000C11F425
:10111000882352F0BB0F40F4BF2B11F460FF04C0D2
:101120006F5F7F4F8F4F9F4F089557FD9058440F2B
:10113000551F59F05F3F71F04795880F97FB991F36
:1011400061F09F3F79F087950895121613061406F3
:10115000551FF2CF4695F1DF08C016161706180680
:10116000991FF1CF86957105610508940895E8945B
:10117000BB2766277727CB0197F908950E94490876
:1011800008F48FEF0895CF92DF92EF92FF92CF9302
:10119000DF93CDB7DEB72A970FB6F894DEBF0FBE48
:1011A000CDBF89879A87A985BA852D913D914D91AB
:1011B0005C9129833A834B835C83232B242B252B3F
:1011C00041F424E239ED4BE557E029833A834B8320
:1011D0005C8369817A818B819C812DE133EF41E0D1
:1011E00050E00E94790969017A01A7EAB1E49B0104
:1011F000AC010E94980969837A838B839C83ACEE4F
:10120000B4EFA70196010E94A6099B01AC01898158
:101210009A81AB81BC81820F931FA41FB51FB7FFBA
:1012200003C00197A109B048E985FA8580839183BD
:10123000A283B3839F772A960FB6F894DEBF0FBEC2
:10124000CDBFDF91CF91FF90EF90DF90CF900895C9
:101250000E94C308089588E091E00E94C3080895A1
:10126000B0E0A0E08093080190930901A0930A01E7
:10127000B0930B010895FB01DC0102C005900D92B3
:1012800041505040D8F70895BB274A3031F4992394
:1012900022F4BDE2909581959F4F0C945009BB2795
:1012A000FB015527AA27880F991FAA1FA41710F022
:1012B000A41B83955051B9F7A05DAA3308F0A95D2E
:1012C000A193009779F7B111B1931192CB010C94CE
:1012D0006909DC01FC01672F71917723E1F73297EF
:1012E00004C07C916D9370836291AE17BF07C8F301
:1012F0000895052E97FB1EF400940E94900957FD57
:1013000007D00E94AB0907FC03D04EF40C9490095F
:1013100050954095309521953F4F4F4F5F4F089521
:1013200090958095709561957F4F8F4F9F4F089551
:101330000E94CD09A59F900DB49F900DA49F800D94
:10134000911D11240895B7FF0C9498090E949809E3
:10135000821B930B0895A1E21A2EAA1BBB1BFD0151
:101360000DC0AA1FBB1FEE1FFF1FA217B307E40784
:10137000F50720F0A21BB30BE40BF50B661F771FDC
:10138000881F991F1A9469F76095709580959095BC
:101390009B01AC01BD01CF010895A29FB001B39F95
:1013A000C001A39F700D811D1124911DB29F700D6E
:0C13B000811D1124911D0895F894FFCFB9
:1013BC0003000100000000000100000041636572A1
:1013CC00746F75203A2900506572646575203A284F
:0213DC0000000F
:040000030000028671
:00000001FF
