:100000000C9424010C9441010C9441010C94410185
:100010000C9441010C94CC020C9441010C944101CC
:100020000C9441010C9441010C9441010C94F40195
:100030000C9441010C9441010C9441010C94410138
:100040000C9441010C9441010C9441010C94410128
:100050000C9441010C9441010C9441010C94410118
:100060000C9441010C944101000000000000005F6D
:1000700000000007000700147F147F14242A7F2A41
:10008000122313086462364955225000050300000C
:10009000001C2241000041221C0014083E081408E4
:1000A000083E0808005030000008080808080060F2
:1000B00060000020100804023E5149453E00427F86
:1000C000400042615149462141454B311814127F8D
:1000D0001027454545393C4A494930017109050316
:1000E0003649494936064949291E0036360000007E
:1000F0005636000008142241001414141414004150
:100100002214080201510906324979413E7E11113B
:10011000117E7F494949363E414141227F4141227A
:100120001C7F494949417F090909013E4149497AF2
:100130007F0808087F00417F41002040413F017F48
:10014000081422417F404040407F020C027F7F0420
:1001500008107F3E4141413E7F090909063E415159
:10016000215E7F09192946464949493101017F012C
:10017000013F4040403F1F2040201F3F4038403F4C
:100180006314081463070870080761514945430068
:100190007F41410002040810200041417F00040219
:1001A0000102044040404040000102040020545439
:1001B00054787F48444438384444442038444448C0
:1001C0007F3854545418087E0901020C5252523E92
:1001D0007F0804047800447D40002040443D007FB7
:1001E0001028440000417F40007C041804787C08FB
:1001F00004047838444444387C1414140808141453
:10020000187C7C080404084854545420043F44409B
:10021000203C4040207C1C2040201C3C4030403C86
:1002200044281028440C5050503C4464544C440022
:100230000836410000007F00000041360800100829
:10024000081008000000000011241FBECFEFD8E006
:10025000DEBFCDBF11E0A0E0B1E0EEE8F2E102C008
:1002600005900D92AA31B107D9F723E0AAE1B1E0D8
:1002700001C01D92A737B207E1F70E9403060C9454
:1002800045090C9400000F931F93CF93DF93809147
:100290001C0190911D010E949908CFE2D3E00AE071
:1002A00010E00E949408B8010E945B06899399931C
:1002B00083E0C733D807A9F7DF91CF911F910F9142
:1002C00008950E9443018CE390E09093260380936D
:1002D000250381E090E090931F0180931E01A7E227
:1002E000B3E011961C921E92EDE1F3E011821082B0
:1002F00013961C921E9212971382128215961C92CC
:100300001E9214971582148217961C921E921697AD
:100310001782168210921B0110921A0108950F93F2
:100320001F93CF93DF93CDB7DEB760970FB6F894E6
:10033000DEBF0FBECDBF60E080E00E949004A7E268
:10034000B3E0FE0139969E012F5E3F4F8F0140E2E0
:100350008D919D91805D808341833296E217F307F2
:10036000B9F7188A61E0C8010E9480046AE080E061
:100370000E949004AFE2B3E0FE013196CF0140E26B
:100380002D913D91205D208341833296E017F10746
:10039000B9F7188661E00E9480040E949504609677
:1003A0000FB6F894DEBF0FBECDBFDF91CF911F9186
:1003B0000F91089510921F0110921E010E949B033D
:1003C00061E084E091E00E9480040C949504109216
:1003D0001F0110921E010E949B0361E08FE091E0DB
:1003E0000E9480040C9495041F920F920FB60F92F6
:1003F00011242F933F934F935F936F937F938F932A
:100400009F93AF93BF93EF93FF9364E180E00E94CB
:10041000900480912503909126038A3091053CF445
:1004200090E390931A03805D80931B0305C04AE01C
:100430006AE173E00E94AD0810921C0380911E01D6
:1004400090911F01892BB1F061E08AE193E00E9455
:1004500080040E948F010E94950480912503909151
:10046000260301979093260380932503019611F4A8
:100470000E94E701FF91EF91BF91AF919F918F9102
:100480007F916F915F914F913F912F910F900FBE90
:100490000F901F90189580911A0190911B01019661
:1004A000843091052CF490931B0180931A010895D8
:1004B00010921B0110921A010895E0911A01F09117
:1004C0001B01EE0FFF1FE95DFC4F808191810196BA
:1004D0008A3091051CF491838083089511821082E3
:1004E0000895E0911A01F0911B01EE0FFF1FE95DE5
:1004F000FC4F80819181019797FF02C089E090E0D5
:10050000918380830895CF93DF93A7E2B3E0CFE296
:10051000D3E0EDE1F3E060E070E081E090E04D9148
:100520005D91299139914217530729F49183808372
:100530006F5F7F4F02C011821082329623E0AF328C
:10054000B20769F728B140911F0350912003440F6F
:10055000551F80911D03282B822F842B209121036E
:1005600030912203220F331F220F331F282B80913B
:1005700023039091240333E0880F991F3A95E1F704
:10058000822B88B96430710521F4DF91CF910C94EE
:10059000DA01DF91CF9108951F920F920FB60F925B
:1005A00011242F933F934F935F936F937F938F9378
:1005B0009F93AF93BF93EF93FF93489B03C04999D9
:1005C0000CC00EC00E945D024899F9CF8FE99FE0F0
:1005D0000197F1F700C00000F7CF4A990CC00EC098
:1005E0000E9471024999F9CF8FE99FE00197F1F7D5
:1005F00000C00000F7CF4B990CC00EC00E944B0208
:100600004A99F9CF8FE99FE00197F1F700C0000008
:10061000F7CF4C990CC022C00E9483024B99F9CFAE
:100620008FE99FE00197F1F700C00000F7CF8FE955
:100630009FE00197F1F700C00000FF91EF91BF919B
:10064000AF919F918F917F916F915F914F913F916A
:100650002F910F900FBE0F901F9018950E9461016F
:100660004C99E5CF8FE99FE00197F1F700C00000BA
:10067000F7CF2998662311F02B9A01C02B9827E019
:1006800030E090E0AC01022E02C0559547950A94E7
:10069000E2F740FF02C02C9A01C02C982D9A2D98A9
:1006A0002150310978F7299A089560E00C943903B4
:1006B000CF93DF93219A229A239A249A259A2A9AF1
:1006C000299A8FE39CE90197F1F700C000002A986E
:1006D0009FEF2AE683E0915020408040E1F700C080
:1006E00000002A9A299881E20E94550383E10E9422
:1006F000550386E00E94550382EC0E94550380E278
:100700000E94550389E00E94550380E80E9455032A
:1007100080E40E945503C8EFD1E061E080E00E94D0
:1007200039032197D1F788E00E9455038CE0DF91CF
:10073000CF910C94550380E80E94550380E40E94F9
:100740005503109218031092190388EF91E0E0E22C
:10075000F1E0DF019C011D9221503040E1F7089546
:10076000811102C084E201C080E20C945503962FEF
:10077000969596959695E82FF0E084E5989FE00D84
:10078000F11D1124E05EFE4F677081E090E001C032
:10079000880F6A95EAF7442319F09081892B03C0EA
:1007A000809590818923808308958F929F92AF9244
:1007B000BF92DF92EF92FF920F931F93CF93DF933D
:1007C00000D000D01F92CDB7DEB7F62E282F082E0E
:1007D000000C330B80326CF02052310985E0829F8F
:1007E000B001839F700D112468597F4F45E050E0A0
:1007F0000EC0220F331FF901E95CFC4F008111810B
:100800000115110559F445E050E068E670E0CE01AD
:1008100001960E94A4088E010F5F1F4F85E0F89E8D
:100820005001112497E0F99E40011124D12C8D2D07
:1008300090E08A159B0544F5E12C8E2D90E08815FB
:10084000990504F58D2D6F2D0E944F06F801E80FD4
:10085000F11D208130E08E2D0E944F0602C035959B
:1008600027958A95E2F760911903809118036E0D20
:1008700020FF02C041E001C040E08D0D0E94B7039F
:10088000E394DBCFD394D3CF8091180391E0980FFA
:100890008F2D880F880F8F0D890F843518F4809362
:1008A00018030BC010921803809119038F5F97E013
:1008B000F99E800D112480931903809119038033D0
:1008C00020F010921803109219030F900F900F90C0
:1008D0000F900F90DF91CF911F910F91FF90EF90AC
:1008E000DF90BF90AF909F908F90089580323CF43E
:1008F000E82FEE0FFF0BE95CFC4F718360830895D6
:100900001F93CF93DF93162FEC018991882321F059
:10091000612F0E94D503F9CFDF91CF911F910895E8
:1009200080931803609319030895CF93DF9380E8B1
:100930000E94550380E40E945503C0E2D1E061E0CB
:1009400089910E94390383E0C831D807C1F7DF914C
:10095000CF9108954F925F926F927F928F929F9264
:10096000AF92BF92CF92DF92EF92FF92CF93DF933D
:10097000CDB7DEB72E970FB6F894DEBF0FBECDBF52
:100980008D876987F22E642F70E0681B7109072E2E
:10099000000C880B990B0E9493074B015C016F2D93
:1009A00070E02985621B7109072E000C880B990BDA
:1009B0000E9493076B017C0124013501E89477F8CC
:1009C000DC01CB01BF7789839A83AB83BC839C0115
:1009D000AD01C301B2010E941F0887FF04C0498016
:1009E0005A806B807C80A3019201C501B4010E94F2
:1009F000F00669837A838B839C83A3019201C701EC
:100A0000B6010E94F0066D837E838F839887AD8543
:100A10006A2F70E080E090E00E9491076B017C01FA
:100A2000B9856B2F70E080E090E00E9491074B0148
:100A30005C0121E030E03E872D87AD85BE85BD019C
:100A4000BB0F880B990B0E9493079B01AC01C3015C
:100A5000B2010E941F0887FD2CC0C501B4010E948D
:100A6000620769877A878B879C87C701B6010E94D6
:100A70006207DC01CB0141E069850E94B70329814F
:100A80003A814B815C81C701B6010E9484066B01EB
:100A90007C012D813E814F815885C501B4010E94A2
:100AA00084064B015C018D859E8501969E878D870E
:100AB000C4CF2E960FB6F894DEBF0FBECDBFDF9128
:100AC000CF91FF90EF90DF90CF90BF90AF909F902D
:100AD0008F907F906F905F904F9008950F931F932A
:100AE000CF93DF93C82F162F042FD22F262F0E94CB
:100AF000AA042D2F402F612F802F0E94AA042D2F92
:100B00004C2F6D2F802F0E94AA04212F4C2F6D2F68
:100B10008C2FDF91CF911F910F910C94AA047F929B
:100B20008F929F92AF92BF92CF92DF92EF92FF92FD
:100B30000F931F93CF93DF93D82EC62EC42FD0E0F0
:100B4000E12CF12C00E010E041E0AC2CA00E6A2D6D
:100B5000BC2EBD0C8B2D0E94B70341E08C2E8C0C5B
:100B6000682D9D2C900E892D0E94B70341E0682DC1
:100B70007D2C701A872D0E94B70341E06A2D8D2CC1
:100B80008C1A882D0E94B70341E0AC2CA01A6A2D64
:100B9000882D0E94B70341E08C2C8C1A682D872D7C
:100BA0000E94B70341E0682D892D0E94B70341E000
:100BB0006A2D8B2D0E94B7031E141F045CF00F5F7B
:100BC0001F4FC801880F991F0196E80EF91E1E14C9
:100BD0001F043CF42197CE01880F991F0196E81A53
:100BE000F90AC017D1070CF0AFCFDF91CF911F9159
:100BF0000F91FF90EF90DF90CF90BF90AF909F90BC
:100C00008F907F9008958AB1807E8AB98BB18F6171
:100C10008BB98091680084608093680080916D003A
:100C20008F6180936D0087B18F6087B928B1409143
:100C30001F0350912003440F551F80911D03282B43
:100C4000822F842B2091210330912203220F331F06
:100C5000220F331F282B809123039091240333E02C
:100C6000880F991F3A95E1F7822B88B9809181000E
:100C70008D60809381008DE38093890088E080936C
:100C8000880080916F00826080936F0078940E944A
:100C9000580381E00E94B0030E949B03FFCF991B81
:100CA00079E004C0991F961708F0961B881F7A9563
:100CB000C9F78095089597FB072E16F4009407D086
:100CC00077FD09D00E946F0607FC05D03EF4909591
:100CD00081959F4F0895709561957F4F0895AA1B48
:100CE000BB1B51E107C0AA1FBB1FA617B70710F017
:100CF000A61BB70B881F991F5A95A9F78095909549
:100D0000BC01CD0108955058BB27AA270E949B061D
:100D10000C94E5070E94D70738F00E94DE0720F008
:100D200039F49F3F19F426F40C94D4070EF4E0959F
:100D3000E7FB0C94CE07E92F0E94F60758F3BA1789
:100D4000620773078407950720F079F4A6F50C94E1
:100D500018080EF4E0950B2EBA2FA02D0B01B90147
:100D600090010C01CA01A0011124FF27591B99F021
:100D7000593F50F4503E68F11A16F040A22F232F2D
:100D8000342F4427585FF3CF469537952795A7957D
:100D9000F0405395C9F77EF41F16BA0B620B730B24
:100DA000840BBAF09150A1F0FF0FBB1F661F771F95
:100DB000881FC2F70EC0BA0F621F731F841F48F44A
:100DC000879577956795B795F7959E3F08F0B0CFD3
:100DD0009395880F08F09927EE0F979587950895BA
:100DE0000E9404070C94E5070E94DE0758F00E9459
:100DF000D70740F029F45F3F29F00C94CE0751113A
:100E00000C9419080C94D4070E94F60768F39923F0
:100E1000B1F3552391F3951B550BBB27AA276217F6
:100E20007307840738F09F5F5F4F220F331F441F03
:100E3000AA1FA9F335D00E2E3AF0E0E832D0915037
:100E40005040E695001CCAF72BD0FE2F29D0660F24
:100E5000771F881FBB1F261737074807AB07B0E867
:100E600009F0BB0B802DBF01FF2793585F4F3AF06D
:100E70009E3F510578F00C94CE070C9419085F3F03
:100E8000E4F3983ED4F3869577956795B795F795F3
:100E90009F5FC9F7880F911D9695879597F90895DB
:100EA000E1E0660F771F881FBB1F62177307840777
:100EB000BA0720F0621B730B840BBA0BEE1F88F786
:100EC000E09508950E94FE0788F09F5798F0B92F8B
:100ED0009927B751B0F0E1F0660F771F881F991F6F
:100EE0001AF0BA95C9F714C0B13091F00E941808F1
:100EF000B1E008950C941808672F782F8827B85F01
:100F000039F0B93FCCF3869577956795B395D9F7C6
:100F10003EF490958095709561957F4F8F4F9F4FD0
:100F20000895E89409C097FB3EF4909580957095DC
:100F300061957F4F8F4F9F4F9923A9F0F92F96E925
:100F4000BB279395F695879577956795B795F1119A
:100F5000F8CFFAF4BB0F11F460FF1BC06F5F7F4F37
:100F60008F4F9F4F16C0882311F096E911C0772349
:100F700021F09EE8872F762F05C0662371F096E852
:100F8000862F70E060E02AF09A95660F771F881F21
:100F9000DAF7880F9695879597F9089597F99F67DF
:100FA00080E870E060E008959FEF80EC08950024F1
:100FB0000A941616170618060906089500240A94BE
:100FC00012161306140605060895092E0394000C44
:100FD00011F4882352F0BB0F40F4BF2B11F460FFD3
:100FE00004C06F5F7F4F8F4F9F4F089557FD9058FC
:100FF000440F551F59F05F3F71F04795880F97FBDD
:10100000991F61F09F3F79F0879508951216130696
:101010001406551FF2CF4695F1DF08C016161706C5
:101020001806991FF1CF86957105610508940895FA
:10103000E894BB2766277727CB0197F908950E948C
:10104000240808F48FEF0895990F0008550FAA0B94
:10105000E0E8FEEF16161706E807F907C0F01216CB
:101060001306E407F50798F0621B730B840B950BCE
:1010700039F40A2661F0232B242B252B21F4089523
:101080000A2609F4A140A6958FEF811D811D0895C0
:101090008F929F92AF92BF92CF92DF92EF92FF9288
:1010A000CF93DF93EC01688179818A819B816115FF
:1010B00071058105910521F464E279ED8BE597E0F6
:1010C0002DE133EF41E050E00E94E20849015A016E
:1010D0009B01AC01A7EAB1E40E9401096B017C010C
:1010E000ACEEB4EFA50194010E940F09DC01CB0125
:1010F0008C0D9D1DAE1DBF1DB7FF03C00197A1093B
:10110000B04888839983AA83BB839F77DF91CF916F
:10111000FF90EF90DF90CF90BF90AF909F908F9017
:1011200008950E944808089580E091E00E944808D0
:101130000895A0E0B0E08093000190930101A09396
:101140000201B09303010895FB01DC0102C0059088
:101150000D9241505040D8F70895BB274A3031F4E2
:10116000992322F4BDE2909581959F4F0C94B90884
:10117000BB27FB015527AA27880F991FAA1FA41771
:1011800010F0A41B83955051B9F7A05DAA3308F065
:10119000A95DA193009779F7B111B1931192CB0199
:1011A0000C94D208DC01FC01672F71917723E1F7E1
:1011B000329704C07C916D9370836291AE17BF0724
:1011C000C8F30895052E97FB1EF400940E94F908B9
:1011D00057FD07D00E94140907FC03D04EF40C946D
:1011E000F90850954095309521953F4F4F4F5F4FEF
:1011F000089590958095709561957F4F8F4F9F4F83
:1012000008950E943609A59F900DB49F900DA49F4C
:10121000800D911D11240895B7FF0C9401090E94BF
:101220000109821B930B0895A1E21A2EAA1BBB1B76
:10123000FD010DC0AA1FBB1FEE1FFF1FA217B307A2
:10124000E407F50720F0A21BB30BE40BF50B661FB8
:10125000771F881F991F1A9469F76095709580957C
:1012600090959B01AC01BD01CF010895A29FB001F3
:10127000B39FC001A39F700D811D1124911DB29FCA
:0E128000700D811D1124911D0895F894FFCF6B
:10128E000100000041636572746F75203A290050A9
:0A129E006572646575203A280000AF
:04000003000002C235
:00000001FF
