:100000000C9424010C9441010C9441010C94410185
:100010000C9441010C948C010C9441010C9441010D
:100020000C9441010C9441010C9441010C94430146
:100030000C9441010C9441010C9441010C94410138
:100040000C9441010C9441010C9441010C94410128
:100050000C9441010C9441010C9441010C94410118
:100060000C9441010C944101000000000000005F6D
:1000700000000007000700147F147F14242A7F2A41
:10008000122313086462364955225000050300000C
:10009000001C2241000041221C0014083E081408E4
:1000A000083E0808005030000008080808080060F2
:1000B00060000020100804023E5149453E00427F86
:1000C000400042615149462141454B311814127F8D
:1000D0001027454545393C4A494930017109050316
:1000E0003649494936064949291E0036360000007E
:1000F0005636000008142241001414141414004150
:100100002214080201510906324979413E7E11113B
:10011000117E7F494949363E414141227F4141227A
:100120001C7F494949417F090909013E4149497AF2
:100130007F0808087F00417F41002040413F017F48
:10014000081422417F404040407F020C027F7F0420
:1001500008107F3E4141413E7F090909063E415159
:10016000215E7F09192946464949493101017F012C
:10017000013F4040403F1F2040201F3F4038403F4C
:100180006314081463070870080761514945430068
:100190007F41410002040810200041417F00040219
:1001A0000102044040404040000102040020545439
:1001B00054787F48444438384444442038444448C0
:1001C0007F3854545418087E0901020C5252523E92
:1001D0007F0804047800447D40002040443D007FB7
:1001E0001028440000417F40007C041804787C08FB
:1001F00004047838444444387C1414140808141453
:10020000187C7C080404084854545420043F44409B
:10021000203C4040207C1C2040201C3C4030403C86
:1002200044281028440C5050503C4464544C440022
:100230000836410000007F00000041360800100829
:10024000081008000000000011241FBECFEFD8E006
:10025000DEBFCDBF11E0A0E0B1E0E0E4FEE002C00F
:1002600005900D92AA32B107D9F723E0AAE2B1E0D6
:1002700001C01D92AE37B207E1F70E9408050C9449
:100280001E070C9400001F920F920FB60F921124BC
:100290002F933F934F935F936F937F938F939F938E
:1002A000AF93BF93EF93FF93CF93DF9300D0CDB77E
:1002B000DEB760E080E00E9495038091020190919A
:1002C00003019A83898380910001805D898361E0C5
:1002D000CE0101960E9485030E949A03809100013D
:1002E00090910101019790930101809300010F907B
:1002F0000F90DF91CF91FF91EF91BF91AF919F91BF
:100300008F917F916F915F914F913F912F910F90BE
:100310000FBE0F901F9018951F920F920FB60F925D
:1003200011242F933F934F935F936F937F938F93FA
:100330009F93AF93BF93EF93FF93489B03C049995B
:100340000FC011C061E084E091E00E9485034899EC
:10035000F6CF8FE99FE00197F1F700C00000F7CFDB
:100360004A990FC025C061E08DE091E00E948503AD
:100370004999F6CF8FE99FE00197F1F700C000009F
:10038000F7CF8FE99FE00197F1F700C00000FF91E0
:10039000EF91BF91AF919F918F917F916F915F91FD
:1003A0004F913F912F910F900FBE0F901F90189576
:1003B00061E086E191E00E9485034899E2CF8FE9F0
:1003C0009FE00197F1F700C00000F7CF089508956E
:1003D00080912A0190912B010196843091052CF493
:1003E00090932B0180932A01089510922B01109273
:1003F0002A010895E0912A01F0912B01EE0FFF1FD1
:10040000E25DFC4F8081918101968A3091051CF458
:10041000918380830895118210820895E0912A01CA
:10042000F0912B01EE0FFF1FE25DFC4F8081918167
:10043000019797FF02C089E090E09183808308953F
:10044000CF93DF93AEE2B3E0C6E3D3E0E6E2F3E0BE
:1004500081E090E04D915D912991399142175307C8
:1004600019F49183808302C011821082329623E0B6
:10047000A633B20779F7DF91CF91089529986623C3
:1004800011F02B9A01C02B9827E030E090E0AC01EE
:10049000022E02C0559547950A94E2F740FF02C02C
:1004A0002C9A01C02C982D9A2D982150310978F75B
:1004B000299A089560E00C943E02CF93DF93219A2D
:1004C000229A239A249A259A2A9A299A8FE39CE9B8
:1004D0000197F1F700C000002A989FEF2AE683E019
:1004E000915020408040E1F700C000002A9A2998EE
:1004F00081E20E945A0283E10E945A0286E00E9431
:100500005A0282EC0E945A0280E20E945A0289E05A
:100510000E945A0280E80E945A0280E40E945A0215
:10052000C8EFD1E061E080E00E943E022197D1F760
:1005300088E00E945A028CE0DF91CF910C945A021D
:1005400080E80E945A0280E40E945A02109224031A
:100550001092250388EF91E0ECE2F1E0DF019C01CD
:100560001D9221503040E1F70895811102C084E2CC
:1005700001C080E20C945A02962F96959695969516
:10058000E82FF0E084E5989FE00DF11D1124E45D73
:10059000FE4F677081E090E001C0880F6A95EAF72E
:1005A000442319F09081892B03C080959081892381
:1005B000808308958F929F92AF92BF92DF92EF92C5
:1005C000FF920F931F93CF93DF9300D000D01F9221
:1005D000CDB7DEB7F62E282F082E000C330B803255
:1005E0006CF02052310985E0829FB001839F700D2D
:1005F000112468597F4F45E050E00EC0220F331F91
:10060000F901E25CFC4F008111810115110559F4DB
:1006100045E050E068E670E0CE0101960E941507C3
:100620008E010F5F1F4F85E0F89E5001112497E067
:10063000F99E40011124D12C8D2D90E08A159B0547
:1006400044F5E12C8E2D90E08815990504F58D2D4B
:100650006F2D0E944405F801E80FF11D208130E064
:100660008E2D0E94440502C0359527958A95E2F7A4
:1006700060912503809124036E0D20FF02C041E0AC
:1006800001C040E08D0D0E94BC02E394DBCFD39407
:10069000D3CF8091240391E0980F8F2D880F880F7E
:1006A0008F0D890F843518F4809324030BC01092AA
:1006B0002403809125038F5F97E0F99E800D11241C
:1006C0008093250380912503803320F0109224032A
:1006D000109225030F900F900F900F900F90DF91C5
:1006E000CF911F910F91FF90EF90DF90BF90AF904F
:1006F0009F908F90089580323CF4E82FEE0FFF0B0F
:10070000E25CFC4F7183608308951F93CF93DF9366
:10071000162FEC018991882321F0612F0E94DA02C3
:10072000F9CFDF91CF911F910895809324036093B7
:1007300025030895CF93DF9380E80E945A0280E456
:100740000E945A02CCE2D1E061E089910E943E020F
:1007500083E0C432D807C1F7DF91CF9108954F925B
:100760005F926F927F928F929F92AF92BF92CF9241
:10077000DF92EF92FF92CF93DF93CDB7DEB72E9744
:100780000FB6F894DEBF0FBECDBF8D876987F22EFE
:10079000642F70E0681B7109072E000C880B990B01
:1007A0000E9460064B015C016F2D70E02985621B81
:1007B0007109072E000C880B990B0E9460066B01D3
:1007C0007C0124013501E89477F8DC01CB01BF7787
:1007D00089839A83AB83BC839C01AD01C301B201C1
:1007E0000E94EC0687FF04C049805A806B807C80A1
:1007F000A3019201C501B4010E94BD0569837A83FA
:100800008B839C83A3019201C701B6010E94BD05A1
:100810006D837E838F839887AD856A2F70E080E03B
:1008200090E00E945E066B017C01B9856B2F70E041
:1008300080E090E00E945E064B015C0121E030E028
:100840003E872D87AD85BE85BD01BB0F880B990BFB
:100850000E9460069B01AC01C301B2010E94EC063C
:1008600087FD2CC0C501B4010E942F0669877A87D5
:100870008B879C87C701B6010E942F06DC01CB0144
:1008800041E069850E94BC0229813A814B815C81EB
:10089000C701B6010E9451056B017C012D813E818B
:1008A0004F815885C501B4010E9451054B015C017F
:1008B0008D859E8501969E878D87C4CF2E960FB617
:1008C000F894DEBF0FBECDBFDF91CF91FF90EF90C8
:1008D000DF90CF90BF90AF909F908F907F906F9060
:1008E0005F904F9008950F931F93CF93DF93C82F7E
:1008F000162F042FD22F262F0E94AF032D2F402F0B
:10090000612F802F0E94AF032D2F4C2F6D2F802F32
:100910000E94AF03212F4C2F6D2F8C2FDF91CF9191
:100920001F910F910C94AF037F928F929F92AF9281
:10093000BF92CF92DF92EF92FF920F931F93CF93CC
:10094000DF93D82EC62EC42FD0E0E12CF12C00E08E
:1009500010E041E0AC2CA00E6A2DBC2EBD0C8B2DFE
:100960000E94BC0241E08C2E8C0C682D9D2C900EB8
:10097000892D0E94BC0241E0682D7D2C701A872DC4
:100980000E94BC0241E06A2D8D2C8C1A882D0E9499
:10099000BC0241E0AC2CA01A6A2D882D0E94BC023A
:1009A00041E08C2C8C1A682D872D0E94BC0241E0FE
:1009B000682D892D0E94BC0241E06A2D8B2D0E947A
:1009C000BC021E141F045CF00F5F1F4FC801880F8C
:1009D000991F0196E80EF91E1E141F043CF421977E
:1009E000CE01880F991F0196E81AF90AC017D1079E
:1009F0000CF0AFCFDF91CF911F910F91FF90EF904F
:100A0000DF90CF90BF90AF909F908F907F90089590
:100A10008AB1807E8AB98BB18F618BB98091680071
:100A200084608093680080916D008F6180936D0079
:100A30008091680084608093680080916D008F6170
:100A400080936D00809181008D60809381008DE3A3
:100A50008093890088E08093880080916F00826095
:100A600080936F0078940E945D0281E00E94B5023D
:100A70000E94A0026CE080E00E94950362E08FE19A
:100A800091E00E948503FFCF991B79E004C0991F74
:100A9000961708F0961B881F7A95C9F780950895D8
:100AA0005058BB27AA270E9468050C94B2060E94E2
:100AB000A40638F00E94AB0620F039F49F3F19F4E9
:100AC00026F40C94A1060EF4E095E7FB0C949B062B
:100AD000E92F0E94C30658F3BA1762077307840709
:100AE000950720F079F4A6F50C94E5060EF4E09550
:100AF0000B2EBA2FA02D0B01B90190010C01CA01D8
:100B0000A0011124FF27591B99F0593F50F4503E82
:100B100068F11A16F040A22F232F342F4427585F74
:100B2000F3CF469537952795A795F0405395C9F78C
:100B30007EF41F16BA0B620B730B840BBAF0915044
:100B4000A1F0FF0FBB1F661F771F881FC2F70EC0E3
:100B5000BA0F621F731F841F48F4879577956795B6
:100B6000B795F7959E3F08F0B0CF9395880F08F0A2
:100B70009927EE0F9795879508950E94D1050C94BB
:100B8000B2060E94AB0658F00E94A40640F029F479
:100B90005F3F29F00C949B0651110C94E6060C94CF
:100BA000A1060E94C30668F39923B1F3552391F37C
:100BB000951B550BBB27AA2762177307840738F0CC
:100BC0009F5F5F4F220F331F441FAA1FA9F335D029
:100BD0000E2E3AF0E0E832D091505040E695001CDD
:100BE000CAF72BD0FE2F29D0660F771F881FBB1F97
:100BF000261737074807AB07B0E809F0BB0B802D75
:100C0000BF01FF2793585F4F3AF09E3F510578F0A0
:100C10000C949B060C94E6065F3FE4F3983ED4F3F5
:100C2000869577956795B795F7959F5FC9F7880F74
:100C3000911D9695879597F90895E1E0660F771FC6
:100C4000881FBB1F621773078407BA0720F0621B57
:100C5000730B840BBA0BEE1F88F7E09508950E9482
:100C6000CB0688F09F5798F0B92F9927B751B0F06D
:100C7000E1F0660F771F881F991F1AF0BA95C9F720
:100C800014C0B13091F00E94E506B1E008950C94D3
:100C9000E506672F782F8827B85F39F0B93FCCF386
:100CA000869577956795B395D9F73EF4909580959D
:100CB000709561957F4F8F4F9F4F0895E89409C0BD
:100CC00097FB3EF490958095709561957F4F8F4F7F
:100CD0009F4F9923A9F0F92F96E9BB279395F69595
:100CE000879577956795B795F111F8CFFAF4BB0F13
:100CF00011F460FF1BC06F5F7F4F8F4F9F4F16C077
:100D0000882311F096E911C0772321F09EE8872F00
:100D1000762F05C0662371F096E8862F70E060E0BC
:100D20002AF09A95660F771F881FDAF7880F969535
:100D3000879597F9089597F99F6780E870E060E0DC
:100D400008959FEF80EC089500240A941616170664
:100D500018060906089500240A94121613061406AC
:100D600005060895092E0394000C11F4882352F00F
:100D7000BB0F40F4BF2B11F460FF04C06F5F7F4FC7
:100D80008F4F9F4F089557FD9058440F551F59F0AE
:100D90005F3F71F04795880F97FB991F61F09F3F68
:100DA00079F087950895121613061406551FF2CF91
:100DB0004695F1DF08C0161617061806991FF1CFE1
:100DC00086957105610508940895E894BB27662708
:100DD0007727CB0197F908950E94F10608F48FEF69
:100DE0000895990F0008550FAA0BE0E8FEEF1616BC
:100DF0001706E807F907C0F012161306E407F5070F
:100E000098F0621B730B840B950B39F40A2661F082
:100E1000232B242B252B21F408950A2609F4A14025
:100E2000A6958FEF811D811D0895FB01DC0102C095
:100E300005900D9241505040D8F70895F894FFCF97
:100E400009002000626F74616F20312100626F74AD
:100E5000616F20322100626F74616F203321006D59
:0A0E600065206D61746F207461005D
:04000003000003CC2A
:00000001FF
