:100000000C9424010C9441010C9441010C94410185
:100010000C9441010C947B040C9441010C9441011B
:100020000C9441010C9441010C9441010C94450441
:100030000C9441010C9441010C9441010C94410138
:100040000C9441010C9441010C9473090C944101EE
:100050000C9441010C9441010C9441010C94410118
:100060000C9441010C944101000000000000005F6D
:1000700000000007000700147F147F14242A7F2A41
:10008000122313086462364955225000050300000C
:10009000001C2241000041221C0014083E081408E4
:1000A000083E0808005030000008080808080060F2
:1000B00060000020100804023E5149453E00427F86
:1000C000400042615149462141454B311814127F8D
:1000D0001027454545393C4A494930017109050316
:1000E0003649494936064949291E0036360000007E
:1000F0005636000008142241001414141414004150
:100100002214080201510906324979413E7E11113B
:10011000117E7F494949363E414141227F4141227A
:100120001C7F494949417F090909013E4149497AF2
:100130007F0808087F00417F41002040413F017F48
:10014000081422417F404040407F020C027F7F0420
:1001500008107F3E4141413E7F090909063E415159
:10016000215E7F09192946464949493101017F012C
:10017000013F4040403F1F2040201F3F4038403F4C
:100180006314081463070870080761514945430068
:100190007F41410002040810200041417F00040219
:1001A0000102044040404040000102040020545439
:1001B00054787F48444438384444442038444448C0
:1001C0007F3854545418087E0901020C5252523E92
:1001D0007F0804047800447D40002040443D007FB7
:1001E0001028440000417F40007C041804787C08FB
:1001F00004047838444444387C1414140808141453
:10020000187C7C080404084854545420043F44409B
:10021000203C4040207C1C2040201C3C4030403C86
:1002200044281028440C5050503C4464544C440022
:100230000836410000007F00000041360800100829
:10024000081008000000000011241FBECFEFD8E006
:10025000DEBFCDBF11E0A0E0B1E0EAE2FBE102C009
:1002600005900D92A832B107D9F723E0A8E2B1E0DA
:1002700001C01D92AC3DB207E1F70E94F1090C9458
:10028000930D0C940000AF92BF92CF92DF92EF9249
:10029000FF920F931F93CF93DF93CDB7DEB7649791
:1002A0000FB6F894DEBF0FBECDBF80912A019091AA
:1002B0002B010E94280DCE0101967C0184E1D7011B
:1002C0001D928A95E9F70E94230D6AE070E00E9472
:1002D0003C0A0CE813E03AE0A32EB12CCC24C394E2
:1002E000D12CFC01EE0FFF1FEE0DFF1D208131818F
:1002F0002130310531F40E94230DB5010E943C0AE2
:10030000F0CFD8018D939D938D01D182C082B3E04F
:1003100004391B0731F760918C0370918D03072E10
:10032000000C880B990B0E94BC0760918E037091A2
:100330008F03072E000C880B990B0E94BC0760915D
:10034000900370919103072E000C880B990B0E946B
:10035000BC076091920370919303072E000C880BE9
:10036000990B0E94BC078CE091E064960FB6F8945C
:10037000DEBF0FBECDBFDF91CF911F910F91FF90D8
:10038000EF90DF90CF90BF90AF900C94A708809132
:100390002801909129010196843091052CF49093C5
:1003A00029018093280108951092290110922801B3
:1003B0000895E0912801F0912901EE0FFF1FEC57FD
:1003C000FC4F8081918101968A3091051CF49183C4
:1003D00080830895118210820895E0912801F091A0
:1003E0002901EE0FFF1FEC57FC4F8081918101978F
:1003F00097FF02C089E090E0918380830895A8E789
:10040000B3E011961C921E92E4E9F3E0118210828F
:1004100013961C921E9212971382128215961C92AA
:100420001E9214971582148217961C921E9216978C
:100430001782168288B1807B88B98BB1887F8BB98F
:1004400008950E9443018EE190E090938103809390
:10045000800381E090E090932D0180932C018AE04D
:1004600090E09093830380938203E4E8F3E01182A9
:1004700010821382128215821482178216820E94C1
:10048000FF011092290110922801089510922D0168
:1004900010922C010E94540561E08EE091E00E94D0
:1004A00039060E944E060E94FF012FEF8BE792E96A
:1004B000215080409040E1F700C000000C942102E0
:1004C00083E090E028B12F6428B92BB127602BB9C5
:1004D0002FEF39E648E1215030404040E1F700C0BD
:1004E000000028B1207B28B92BB1287F2BB92FEF32
:1004F00039E648E1215030404040E1F700C00000BB
:10050000019701F7089510922D0110922C010E947D
:10051000540561E088E191E00E9439060E944E0690
:100520000E94FF010E9460020C9421024F925F9290
:100530006F927F928F929F92AF92BF92CF92DF92F3
:10054000EF92FF920F931F93CF93DF93CDB7DEB758
:1005500060970FB6F894DEBF0FBECDBF88E08E0166
:10056000075F1F4FF801282F11922A95E9F7FE0126
:1005700031964F0111928A95E9F70E94FF01ECE84C
:100580004E2EE3E05E2E58019401A801B201A4E8CA
:10059000B3E080E090E066246394712CCD90DD9010
:1005A000FB01E190F190BF01CE14DF0439F4019614
:1005B000FA0171826082F901718260824E5F5F4F41
:1005C0002E5F3F4FF3E0AC38BF0741F76E0121E1EA
:1005D000C20ED11C20E030E0F501419151915F0144
:1005E00041305105C1F044E853E0D4016D917D9153
:1005F0006130710559F0FA01E080F180F20160810B
:100600007181E616F70611F42F5F3F4F4E5F5F4F83
:100610000A171B0759F7F2E04F0E511CCA14DB04EE
:10062000D9F6E8E7F3E040E050E061E070E0481719
:10063000590714F4718360834F5F5F4F32964430E3
:100640005105A9F7E4E9F3E040E050E061E070E033
:100650004217530714F4718360834F5F5F4F3296E4
:1006600044305105A9F7049719F40E94830213C07E
:1006700080918203909183030197909383038093E9
:100680008203892B11F40E9446028EE190E0909340
:1006900081038093800328B160917A0370917B037A
:1006A000660F771F80917803282B262B40917C03BF
:1006B00050917D03440F551F440F551F822F842BEB
:1006C00020917E0330917F0343E0220F331F4A9530
:1006D000E1F7282B809194039091950356E0880FC1
:1006E000991F5A95E1F7822B88B92BB18091960317
:1006F000822B2091980330919903220F331F282BCE
:1007000080919A0390919B03880F991F880F991FDE
:10071000822B8BB960960FB6F894DEBF0FBECDBFAB
:10072000DF91CF911F910F91FF90EF90DF90CF90CD
:10073000BF90AF909F908F907F906F905F904F9001
:1007400008951F93CF93DF93CDB7DEB760970FB6B1
:10075000F894DEBF0FBECDBF60E080E00E94490686
:1007600088E0E4E0F1E0DE01199601900D928A95AF
:10077000E1F7A4E8B3E0FE013996AE014F5E5F4FAA
:10078000CF0160E22D913D91205D208310E26183D5
:100790003296E417F507B1F7188A61E00E9439062E
:1007A0006AE080E00E94490688E0E4E0F1E0DE01D2
:1007B000119601900D928A95E1F719831A831B8394
:1007C0001C83E0912801F0912901EE0FFF1F81E0C9
:1007D00090E08C0F9D1FE80FF91F8AE28083188636
:1007E00061E0CE0101960E94390660960FB6F8943A
:1007F000DEBF0FBECDBFDF91CF911F91089564E1A1
:1008000080E00E94490680918003909181038A30A4
:1008100091053CF490E390937203805D80937303A1
:1008200005C04AE062E773E00E943C0D1092740339
:1008300061E082E793E00C9439066EE180E00E946B
:10084000490680918203909183038A3091053CF49C
:1008500090E390937503805D8093760305C04AE032
:1008600065E773E00E943C0D1092770361E085E735
:1008700093E00C9439060E9454050E94A1030E9443
:10088000FF030E941D040C944E061F920F920FB698
:100890000F9211242F933F934F935F936F937F9306
:1008A0008F939F93AF93BF93EF93FF9380912C010E
:1008B00090912D01892B71F00E943B04809180035F
:1008C000909181030197909381038093800397FD1A
:1008D0000E944602FF91EF91BF91AF919F918F913E
:1008E0007F916F915F914F913F912F910F900FBE2C
:1008F0000F901F9018951F920F920FB60F92112410
:100900002F933F934F935F936F937F938F939F9317
:10091000AF93BF93EF93FF934B9B03C04C990EC0D3
:1009200010C00E94D9010E943B044B99F7CF8FE978
:100930009FE00197F1F700C00000F7CF4D990EC07E
:1009400010C00E94ED010E943B044C99F7CF8FE943
:100950009FE00197F1F700C00000F7CF4E990EC05D
:1009600010C00E94C7010E943B044D99F7CF8FE948
:100970009FE00197F1F700C00000F7CF4F9B27C021
:100980000FC00E9496020E941D040E944E064E99BE
:10099000F5CF8FE99FE00197F1F700C00000F7CF96
:1009A0008FE99FE00197F1F700C00000FF91EF9100
:1009B000BF91AF919F918F917F916F915F914F9177
:1009C0003F912F910F900FBE0F901F9018950E948E
:1009D00021024F99E5CF8FE99FE00197F1F700C021
:1009E0000000F7CF2998662311F02B9A01C02B98AD
:1009F00027E030E090E0AC01022E02C0559547950B
:100A00000A94E2F740FF02C02C9A01C02C982D9A5C
:100A10002D982150310978F7299A089560E00C94B7
:100A2000F204CF93DF93219A229A239A249A259A4B
:100A30002A9A299A8FE39CE90197F1F700C00000F8
:100A40002A989FEF2AE683E0915020408040E1F70A
:100A500000C000002A9A299881E20E940E0583E1D5
:100A60000E940E0586E00E940E0582EC0E940E0593
:100A700080E20E940E0589E00E940E0580E80E9437
:100A80000E0580E40E940E05C8EFD1E061E080E031
:100A90000E94F2042197D1F788E00E940E058CE0B5
:100AA000DF91CF910C940E0580E80E940E0580E442
:100AB0000E940E05109226031092270388EF91E002
:100AC000EEE2F1E0DF019C011D9221503040E1F7A0
:100AD0000895811102C084E201C080E20C940E05E9
:100AE000962F969596959695E82FF0E084E5989F39
:100AF000E00DF11D1124E25DFE4F677081E090E092
:100B000001C0880F6A95EAF7442319F09081892B78
:100B100003C0809590818923808308958F929F924E
:100B2000AF92BF92DF92EF92FF920F931F93CF93FA
:100B3000DF9300D000D01F92CDB7DEB7F62E282F5E
:100B4000082E000C330B80326CF02052310985E006
:100B5000829FB001839F700D112468597F4F45E03B
:100B600050E00EC0220F331FF901E456FC4F008104
:100B700011810115110559F445E050E068E670E077
:100B8000CE0101960E94330D8E010F5F1F4F85E04D
:100B9000F89E5001112497E0F99E40011124D12CB8
:100BA0008D2D90E08A159B0544F5E12C8E2D90E06B
:100BB0008815990504F58D2D6F2D0E94300AF801D6
:100BC000E80FF11D208130E08E2D0E94300A02C016
:100BD000359527958A95E2F7609127038091260342
:100BE0006E0D20FF02C041E001C040E08D0D0E946B
:100BF0007005E394DBCFD394D3CF8091260391E0AB
:100C0000980F8F2D880F880F8F0D890F843518F45A
:100C1000809326030BC010922603809127038F5FD9
:100C200097E0F99E800D112480932703809127037C
:100C3000803320F010922603109227030F900F901C
:100C40000F900F900F90DF91CF911F910F91FF9018
:100C5000EF90DF90BF90AF909F908F90089580327B
:100C60003CF4E82FEE0FFF0BE456FC4F71836083DA
:100C700008951F93CF93DF93162FEC01899188235A
:100C800021F0612F0E948E05F9CFDF91CF911F9146
:100C9000089580932603609327030895CF93DF93ED
:100CA00080E80E940E0580E40E940E05CEE2D1E0AD
:100CB00061E089910E94F20483E0C632D807C1F74F
:100CC000DF91CF9108954F925F926F927F928F92B2
:100CD0009F92AF92BF92CF92DF92EF92FF92CF930B
:100CE000DF93CDB7DEB72E970FB6F894DEBF0FBEF9
:100CF000CDBF8D876987F22E642F70E0681B710964
:100D0000072E000C880B990B0E94B50B4B015C0160
:100D10006F2D70E02985621B7109072E000C880B6E
:100D2000990B0E94B50B6B017C0124013501E894FD
:100D300077F8DC01CB01BF7789839A83AB83BC83CF
:100D40009C01AD01C301B2010E94410C87FF04C0A8
:100D500049805A806B807C80A3019201C501B40157
:100D60000E94120B69837A838B839C83A301920177
:100D7000C701B6010E94120B6D837E838F83988713
:100D8000AD856A2F70E080E090E00E94B30B6B01AC
:100D90007C01B9856B2F70E080E090E00E94B30B7E
:100DA0004B015C0121E030E03E872D87AD85BE859B
:100DB000BD01BB0F880B990B0E94B50B9B01AC01C9
:100DC000C301B2010E94410C87FD2CC0C501B401D2
:100DD0000E94840B69877A878B879C87C701B6013D
:100DE0000E94840BDC01CB0141E069850E94700503
:100DF00029813A814B815C81C701B6010E94A60A14
:100E00006B017C012D813E814F815885C501B40164
:100E10000E94A60A4B015C018D859E8501969E87E6
:100E20008D87C4CF2E960FB6F894DEBF0FBECDBF10
:100E3000DF91CF91FF90EF90DF90CF90BF90AF9078
:100E40009F908F907F906F905F904F9008950F9339
:100E50001F93CF93DF93C82F162F042FD22F262F47
:100E60000E9463062D2F402F612F802F0E94630662
:100E70002D2F4C2F6D2F802F0E946306212F4C2F7A
:100E80006D2F8C2FDF91CF911F910F910C946306E2
:100E90007F928F929F92AF92BF92CF92DF92EF920A
:100EA000FF920F931F93CF93DF93D82EC62EC42F9C
:100EB000D0E0E12CF12C00E010E041E0AC2CA00EE1
:100EC0006A2DBC2EBD0C8B2D0E94700541E08C2E2E
:100ED0008C0C682D9D2C900E892D0E94700541E090
:100EE000682D7D2C701A872D0E94700541E06A2DB7
:100EF0008D2C8C1A882D0E94700541E0AC2CA01A14
:100F00006A2D882D0E94700541E08C2C8C1A682D6A
:100F1000872D0E94700541E0682D892D0E94700583
:100F200041E06A2D8B2D0E9470051E141F045CF099
:100F30000F5F1F4FC801880F991F0196E80EF91E19
:100F40001E141F043CF42197CE01880F991F0196AF
:100F5000E81AF90AC017D1070CF0AFCFDF91CF9193
:100F60001F910F91FF90EF90DF90CF90BF90AF90C7
:100F70009F908F907F9008954F925F926F927F9293
:100F8000BF92CF92DF92EF92FF920F931F93CF9376
:100F9000DF93CDB7DEB76E970FB6F894DEBF0FBE06
:100FA000CDBF97FD1DC08E010F5F1F4F78014AE036
:100FB000442E512C612C712C0F5F1F4F680121E0D2
:100FC000C21AD108A30192010E94720A605DD60183
:100FD0006C93CA01B901232B242B252B69F721C05F
:100FE0002DE229838E010E5F1F4F78012AE0422EE9
:100FF000512C612C712C30E3B32E0F5F1F4F680111
:10100000B1E0CB1AD108A30192010E94720A8B2D84
:10101000861BF6018083CA01B901232B242B252BC3
:1010200061F7F701D8011C92015011090E171F0733
:1010300030F08081D8019C9191938C93F5CF8E01F3
:101040000F5F1F4FF80181918F01882319F00E94D3
:10105000D509F8CF6E960FB6F894DEBF0FBECDBFA0
:10106000DF91CF911F910F91FF90EF90DF90CF9084
:10107000BF907F906F905F904F9008958F929F9256
:10108000AF92BF92CF92DF92EF92FF920F931F9396
:10109000CF93DF93CDB7DEB76E970FB6F894DEBF70
:1010A0000FBECDBF4B015C01DE0111968D01FD012C
:1010B0003196750164012FE0C222DD24EE24FF2465
:1010C00020E32C0D2C9324E0B694A7949794879456
:1010D0002A95D1F781149104A104B10411F0DF0124
:1010E000E6CF603171058105910520F4319680E3EA
:1010F00011968C931082D8013197EA17FB0760F0A4
:101100009C919A330CF0995D80818A330CF0895D53
:101110008C9390831196F0CFF80181918F018823F1
:1011200019F00E94D509F8CF6E960FB6F894DEBF7D
:101130000FBECDBFDF91CF911F910F91FF90EF9028
:10114000DF90CF90BF90AF909F908F900895CF93F6
:10115000DF93EC018991882319F00E94D509FACF19
:10116000DF91CF9108958F929F92AF92BF92CF92CD
:10117000DF92EF92FF926B017C010E94840B4B0186
:101180005C010E94BC0783E291E00E94A708C501B0
:10119000B4010E94B30B9B01AC01C701B6010E94D0
:1011A000A50A20E030E04AE754E40E94460C0E9481
:1011B000840B6B017C0184E6C816D104E104F104C0
:1011C00070F485E291E00E94A7088AE0C816D10475
:1011D000E104F10420F485E291E00E94A708C70130
:1011E000B601FF90EF90DF90CF90BF90AF909F90AF
:1011F0008F900C94BC07CF93C42FF8949B01AC0143
:1012000084E0220F331F441F551F8A95D1F760E0F9
:1012100074E284EF90E00E94500ABA01A9014150A3
:10122000510961097109BB27A72F962F852F80933C
:10123000C5004093C40086E08093C200C11102C083
:1012400088E901C088E18093C1007894CF91089526
:10125000109269031092680310926B0310926A0354
:1012600010926D0310926C03089580916C0390911D
:101270006D0308959091C00095FFFCCF8093C60048
:1012800008958091C00087FFFCCF8091C60008952B
:10129000209168033091690380916A0390916B03F8
:1012A00028173907A9F3F894E0916803F0916903CE
:1012B000E85DFC4F808120916803309169032F5FC6
:1012C0003F4F2F7333273093690320936803209196
:1012D0006C0330916D032150310930936D032093DD
:1012E0006C03789408951F920F920FB60F921124F9
:1012F0002F933F938F939F93AF93BF93EF93FF935E
:101300008091C00087FF38C080916A0390916B0381
:1013100001968F7399272091680330916903821792
:101320009307B9F0E0916A03F0916B032091C60036
:10133000E85DFC4F208390936B0380936A03809158
:101340006C0390916D03019690936D0380936C03F1
:10135000D7CF80916E0390916F03A0917003B091ED
:1013600071030196A11DB11D80936E0390936F03CD
:10137000A0937003B0937103FF91EF91BF91AF9170
:101380009F918F913F912F910F900FBE0F901F90C3
:1013900018951092C50080E18093C40086E0809388
:1013A000C20088E18093C10008959091C00095FF2C
:1013B000FCCF8093C60008958091C00087FFFCCFCA
:1013C0008091C6000895CF93DF93EC018991882323
:1013D00019F00E94D509FACF8AE0DF91CF910C94E1
:1013E000D50940E060E071EE80E090E00E94FB08EB
:1013F0008AB187708AB98BB1886F8BB98091680088
:1014000086608093680080916D00886F80936D0086
:101410008AB187608AB987B18F6487B9809181006A
:101420008D60809381008DE38093890088E08093B4
:10143000880080916F00826080936F0078940E9492
:10144000110581E00E9469050E94540580912A01DE
:1014500090912B01019690932B0180932A01F6CF56
:10146000991B79E004C0991F961708F0961B881FF6
:101470007A95C9F78095089597FB072E16F4009486
:1014800007D077FD09D00E94910A07FC05D03EF4F1
:10149000909581959F4F0895709561957F4F089520
:1014A000A1E21A2EAA1BBB1BFD010DC0AA1FBB1F68
:1014B000EE1FFF1FA217B307E407F50720F0A21BDA
:1014C000B30BE40BF50B661F771F881F991F1A9447
:1014D00069F760957095809590959B01AC01BD0171
:1014E000CF010895052E97FB1EF400940E94890AEF
:1014F00057FD07D00E94500A07FC03D04EF40C940D
:10150000890A50954095309521953F4F4F4F5F4F39
:10151000089590958095709561957F4F8F4F9F4F5F
:101520000895AA1BBB1B51E107C0AA1FBB1FA6172A
:10153000B70710F0A61BB70B881F991F5A95A9F77C
:1015400080959095BC01CD0108955058BB27AA27DE
:101550000E94BD0A0C94070C0E94F90B38F00E94FF
:10156000000C20F039F49F3F19F426F40C94F60B8C
:101570000EF4E095E7FB0C94F00BE92F0E94180C99
:1015800058F3BA17620773078407950720F079F4B8
:10159000A6F50C943A0C0EF4E0950B2EBA2FA02D64
:1015A0000B01B90190010C01CA01A0011124FF2710
:1015B000591B99F0593F50F4503E68F11A16F0400B
:1015C000A22F232F342F4427585FF3CF469537950A
:1015D0002795A795F0405395C9F77EF41F16BA0BCF
:1015E000620B730B840BBAF09150A1F0FF0FBB1F7D
:1015F000661F771F881FC2F70EC0BA0F621F731FC6
:10160000841F48F4879577956795B795F7959E3F22
:1016100008F0B0CF9395880F08F09927EE0F9795B3
:10162000879508950E94260B0C94070C0E94000CCD
:1016300058F00E94F90B40F029F45F3F29F00C9418
:10164000F00B51110C943B0C0C94F60B0E94180CEF
:1016500068F39923B1F3552391F3951B550BBB27E1
:10166000AA2762177307840738F09F5F5F4F220F26
:10167000331F441FAA1FA9F335D00E2E3AF0E0E81D
:1016800032D091505040E695001CCAF72BD0FE2F67
:1016900029D0660F771F881FBB1F261737074807FB
:1016A000AB07B0E809F0BB0B802DBF01FF279358B3
:1016B0005F4F3AF09E3F510578F00C94F00B0C947C
:1016C0003B0C5F3FE4F3983ED4F38695779567959E
:1016D000B795F7959F5FC9F7880F911D96958795E8
:1016E00097F90895E1E0660F771F881FBB1F621707
:1016F00073078407BA0720F0621B730B840BBA0BC5
:10170000EE1F88F7E09508950E94200C88F09F57FF
:1017100098F0B92F9927B751B0F0E1F0660F771F15
:10172000881F991F1AF0BA95C9F714C0B13091F00B
:101730000E943A0CB1E008950C943A0C672F782F70
:101740008827B85F39F0B93FCCF3869577956795D0
:10175000B395D9F73EF490958095709561957F4F3C
:101760008F4F9F4F0895E89409C097FB3EF49095E2
:101770008095709561957F4F8F4F9F4F9923A9F06A
:10178000F92F96E9BB279395F695879577956795F9
:10179000B795F111F8CFFAF4BB0F11F460FF1BC03D
:1017A0006F5F7F4F8F4F9F4F16C0882311F096E9D0
:1017B00011C0772321F09EE8872F762F05C066237E
:1017C00071F096E8862F70E060E02AF09A95660F37
:1017D000771F881FDAF7880F9695879597F90895F0
:1017E00097F99F6780E870E060E008959FEF80ECD4
:1017F000089500240A941616170618060906089577
:1018000000240A9412161306140605060895092EDC
:101810000394000C11F4882352F0BB0F40F4BF2B4B
:1018200011F460FF04C06F5F7F4F8F4F9F4F08958B
:1018300057FD9058440F551F59F05F3F71F0479581
:10184000880F97FB991F61F09F3F79F08795089566
:10185000121613061406551FF2CF4695F1DF08C085
:10186000161617061806991FF1CF869571056105A2
:1018700008940895E894BB2766277727CB0197F94A
:1018800008950E94B30C08F48FEF08950E94590C3C
:101890000C94070C0E94F90B38F00E94000C20F009
:1018A000952311F00C94F00B0C94F60B11240C946E
:1018B0003B0C0E94180C70F3959FC1F3950F50E0FC
:1018C000551F629FF001729FBB27F00DB11D639FF2
:1018D000AA27F00DB11DAA1F649F6627B00DA11D98
:1018E000661F829F2227B00DA11D621F739FB00D3E
:1018F000A11D621F839FA00D611D221F749F3327AE
:10190000A00D611D231F849F600D211D822F762F46
:101910006A2F11249F5750409AF0F1F088234AF023
:10192000EE0FFF1FBB1F661F771F881F915050408F
:10193000A9F79E3F510580F00C94F00B0C943B0CE2
:101940005F3FE4F3983ED4F3869577956795B79516
:10195000F795E7959F5FC1F7FE2B880F911D969530
:10196000879597F90895990F0008550FAA0BE0E89D
:10197000FEEF16161706E807F907C0F01216130651
:10198000E407F50798F0621B730B840B950B39F491
:101990000A2661F0232B242B252B21F408950A26F7
:1019A00009F4A140A6958FEF811D811D08958F92A6
:1019B0009F92AF92BF92CF92DF92EF92FF92CF931E
:1019C000DF93EC01688179818A819B8161157105C2
:1019D0008105910521F464E279ED8BE597E02DE135
:1019E00033EF41E050E00E94720A49015A019B0125
:1019F000AC01A7EAB1E40E94710D6B017C01ACEE71
:101A0000B4EFA50194010E947F0DDC01CB018C0D88
:101A10009D1DAE1DBF1DB7FF03C00197A109B048B2
:101A200088839983AA83BB839F77DF91CF91FF90AF
:101A3000EF90DF90CF90BF90AF909F908F900895E0
:101A40000E94D70C089580E091E00E94D70C089581
:101A5000A0E0B0E08093000190930101A093020107
:101A6000B09303010895FB01DC0102C005900D92C3
:101A700041505040D8F70895BB274A3031F499239C
:101A800022F4BDE2909581959F4F0C94480DBB27A1
:101A9000FB015527AA27880F991FAA1FA41710F02A
:101AA000A41B83955051B9F7A05DAA3308F0A95D36
:101AB000A193009779F7B111B1931192CB010C94D6
:101AC000610DDC01FC01672F71917723E1F73297FB
:101AD00004C07C916D9370836291AE17BF07C8F309
:101AE00008950E94840DA59F900DB49F900DA49F12
:101AF000800D911D11240895B7FF0C94710D0E9463
:101B0000710D821B930B0895A29FB001B39FC0017A
:101B1000A39F700D811D1124911DB29F700D811D19
:0A1B20001124911D0895F894FFCFE1
:101B2A000100000020202020202020200A005065EB
:101B3A0072646575203A280041636572746F752076
:081B4A003A29002E00300000D2
:0400000300000442B3
:00000001FF
